:020000040000FA
:04003B00020030008F
:0D300000C0E0439A80E59A20E0FBD0E0326A
:10602000028EFDE94A4B700122120070F6FF6D707E
:106030000122EF7004FBFAF92209E970EC0A80E909
:10604000D2E82202016F373098FDAF99C2987E00E6
:1060500022002202016FEC286E756C6C2900256409
:106060000A0025730A0D00438F022202018A4D02A5
:1060700001A08B0201911E0201A9760201A7B13E87
:106080003E2000456E7465722050617373776F72A5
:10609000642000202121554E53454355524521216E
:1060A0002000636F6D6D616E640073686F7274635E
:1060B000757400636F6D6D616E642066756E6374D8
:1060C000696F6E616C206465736372697074696F67
:1060D0006E0068656C70003F00646973706C617974
:1060E0002068656C70206D657373616765732066E9
:1060F0006F72206D656E7573007265626F6F7400EC
:106100007262005265626F6F742074686520646506
:106110007669636520776974686F75742063686158
:106120006E67696E672073657474696E6773006D5E
:106130006573736167655F6672616D6573006D6637
:10614000006F757470757420746865206461746183
:106150002061727261797320686F6C64696E672068
:1061600074686520686F73742064617461006C6981
:10617000676874696E6763616C006C63616C00547E
:1061800075726E206F6E20746865206C6967687424
:10619000696E672063616C6962726174696F6E20F9
:1061A000666565646261636B006C69676874696EDB
:1061B0006773686F77006C73687700446973706CFD
:1061C0006179207468652063757272656E74206CE5
:1061D00069676874696E67207461626C6520696EB6
:1061E000206D656D6F727920284C43414C206D7590
:1061F000737420626520656E61626C656429006D50
:1062000061736B0072656164206F72207365742026
:10621000746865204950207375626E6574206D61E5
:10622000736B0077726974650077720077726974B6
:1062300065206461746120746F2074686520493240
:106240004320454550524F4D00736C617665737421
:1062500061747573310A0D00736C617665737461D6
:10626000747573320A0D006669726D77617265200C
:10627000310A0D006669726D7761726520320A0D10
:106280000073686F775F6465766963655F636F6EDF
:106290006669670031416D626967756F7573206368
:1062A0006F6D6D616E643A202573202564750A0D4B
:1062B0000032416D626967756F757320636F6D6D34
:1062C000616E643A202573202564750A0D00556EB1
:1062D0006B6E6F776E20636F6D6D616E643A202513
:1062E000730A0D000A53494D54454B20494E432E25
:1062F0002064657669636520636F6E666967757291
:106300006174696F6E206D656E7520282573202578
:1063100073290A0D0030332F31302F3236003135DA
:106320003A33313A30310020280029202020202023
:1063300020202020202020200000000D202D2D2DA9
:106340002D2D2D2D2D2D2D2D2D2D2D2D2D2D2D2D7D
:106350002D2D2D2D2D2D2D2D2D2020202D2D2D2D94
:106360002D2D2D2D2D2D2D2D2D2D2D2D2D2D2D2D5D
:106370002D2D2D2D2D2D2D2D2D2D2D2D2D2D2D2D4D
:106380002D2D2D2D2D2D2D0A0D0029002020252D00
:10639000323773202D2025730A0D000A0D00556E2B
:1063A0006B6E6F776E2068656C7020706172616DC6
:1063B000657465722025730A0D0055736167652049
:1063C0003A2072656164203C64657669636520618A
:1063D0006464726573733E203C6D656D6F727920E5
:1063E000616464726573733E203C6D656D6F727994
:1063F000206C656E6774683E0A0D004465766963BB
:10640000652061646472657373206572726F722EA9
:106410000A0D0025730A0054686520646576696377
:10642000652061646472657373206973206F75748D
:10643000206F662072616E67652E0A0D004E6F2018
:106440006D656D6F7279206164647265737320731A
:1064500070656369666965640A0D004D656D6F72EC
:10646000792061646472657373206572726F722E35
:106470000A0D00546865206D656D6F727920616446
:106480006472657373206973206F7574206F662062
:1064900072616E67652E0A0D004E6F207265616431
:1064A000206C656E677468207370656369666965E2
:1064B000640A0D004D656D6F7279206C656E6774AE
:1064C00068206572726F722E0A0D006C656E6774BB
:1064D00068203D20256C750A0D00546865206C65A8
:1064E0006E677468206973206F7574206F66207200
:1064F000616E67652E0A0D002041646472657373D6
:106500002020202030302030312030322030332005
:1065100030342030352030362030372030382030AD
:106520003920304120304220304320304420304553
:106530002030460A0D002020202020202020207C12
:106540002D2D2D2D2D2D2D2D2D2D2D2D2D2D2D2D7B
:106550002D2D2D2D2D2D2D2D2D2D2D2D2D2D2D2D6B
:106560002D2D2D2D2D2D2D2D2D2D2D2D2D2D2D2D5B
:106570002D2D0A0D00204164647265737320202064
:10658000200025303262782000202020202020208A
:1065900020207C2D2D002D2D2D002030782530340D
:1065A000647820207C20200052656164204572724E
:1065B0006F722E0A005573616765203A20707772FA
:1065C000203C6465766963652061646472657373F9
:1065D0003E203C6D656D6F727920616464726573F5
:1065E000733E203C6D656D6F727920646174613E0D
:1065F0000A0D004E6F206D656D6F727920646174B5
:1066000061207370656369666965640A0D004D6594
:106610006D6F72792064617461206572726F722E81
:106620000A0D005468652064617461206973206FED
:106630007574206F662072616E67652E0A0D0057B3
:10664000726974652041646472657373203A202511
:106650006C780A0D0057726974652044617461207A
:106660003A20005772697465204572726F72005546
:1066700073616765202020202020202020203A0AF6
:106680000D00777269746520746F2070726F6D20D1
:10669000203A202573203C73746172745F616464D6
:1066A000723E203C656E645F616464723E203C64AF
:1066B0006174613E0062616420617267756D656E30
:1066C0007420310A0D0062616420617267756D6526
:1066D0006E7420320A0D0062616420617267756D0C
:1066E000656E7420330A0D006368617261637465BE
:1066F00072203A2025303262780A0D00737461727C
:106700007420202020203A2025303262780A0D00A3
:10671000656E64202020202020203A20253032641D
:10672000780A0D006C656E677468202020203A207E
:106730002564750A0D0072616E6765206572726F5F
:10674000720A0D00756E61626C6520746F20616C59
:106750006C6F636174652072657175697265642020
:106760006D656D6F72792073697A65006C656E2056
:106770002020202020203A202564640A0D25730063
:1067800053696D74656B002A2A2A2A2A2A000D0093
:10679000256300082008004E6F206D6F726520721F
:1067A0006F6F6D20666F72206D656E752061646419
:1067B000696E670A0053797374656D206572726F34
:1067C000722C2066756E6374696F6E203C55544957
:1067D0004C5F53746F6F6765733E2073686F756CA1
:1067E00064206E6F742062652063616C6C65640A5E
:1067F00000252D3234733A00202530326278000AA9
:106800000D252D3234733A0000636865636B737530
:106810006D20757064617465640A0D004443422004
:106820004C656E6774680030313233343536373832
:106830003920000A0D496E76616C696420636861D5
:1068400072616374657220696E20495020616464CE
:10685000726573732E205468652076616C696420BC
:106860006368617261637465722073657420697313
:10687000202730313233343536373839202E270A45
:106880000D000A0D496E76616C696420636861725F
:10689000616374657220696E20706F7274206E750A
:1068A0006D6265720A0D005468652076616C6964DA
:1068B0002063686172616374657220736574206916
:1068C0007320273031323334353637383920270AB0
:1068D0000D006D6163203A200052656164204572AD
:1068E000726F722E00726561642066726F6D207027
:1068F000726F6D203A206D61630A0D0077726974C2
:106900006520746F2070726F6D20203A206D616376
:10691000203C6F63746574313E203C6F6374657412
:10692000323E203C6F63746574333E203C6F637469
:106930006574343E203C6F63746574353E203C6F53
:1069400063746574363E00526561642D4261636B09
:10695000204572726F7200496E636F6D706C657462
:1069600065204D414320616464726573733F0A0D75
:10697000005573616765203A206D6163203C6F6349
:10698000746574313E203C6F63746574323E203C04
:106990006F63746574333E203C6F63746574343E7A
:1069A000203C6F63746574353E203C6F637465747E
:1069B000363E002573203A20257320282530346484
:1069C000782900726561642066726F6D2070726F45
:1069D0006D203A2025730A0D007772697465207462
:1069E0006F2070726F6D20203A202573203C257334
:1069F0002F25733E0052656164204572726F7200EC
:106A00004448435020436C69656E74006469736147
:106A1000626C6500656E61626C6500554450205083
:106A2000726F746F636F6C006F6666006F6E0054F8
:106A300043502050726F746F636F6C005544502048
:106A400042726F6461636173747320526563696538
:106A5000766564005472616E736D6974204D6F6465
:106A6000650073657276657200636C69656E7400AB
:106A70005265706F7274204D6574686F6400706F3A
:106A80006C6C6564007265616C74696D650053744B
:106A90006174757320427566006E616D65203A20E1
:106AA000257300726561642066726F6D2070726F6D
:106AB0006D203A206E616D650A0D0077726974650C
:106AC00020746F2070726F6D20203A206E616D65AA
:106AD000203C63686172313E202E2E2E203C63687C
:106AE000617231353E0A0D002573203A2025697008
:106AF00000777269746520746F2070726F6D20204A
:106B00003A202573203C6F63746574313E2E3C6FD0
:106B100063746574323E2E3C6F63746574333E2E2D
:106B20003C6F63746574343E00496E636F6D706CC6
:106B300065746520495076342061646472657373AE
:106B40003F0A0D005573616765203A20686F7374C2
:106B50005F6970203C6F63746574313E2E3C6F63D7
:106B6000746574323E2E3C6F63746574333E2E3C04
:106B70006F63746574343E004465766963652053C1
:106B800065727665722049500044657669636520B8
:106B9000436C69656E7420495000486F73742043DC
:106BA0006C69656E7420495000486F73742053659A
:106BB00072766572204950005375626E6574204D7F
:106BC00061736B002573203A20002564750077728D
:106BD00069746520746F2070726F6D20203A2025D3
:106BE00073203C776F72643E00496E76616C696415
:106BF0002063686172616374657220696E20706FD2
:106C00007274206E756D6265723F0A0D0055736176
:106C10006765203A202573203C776F72643E0044FC
:106C200065766963652053657276657220506F7270
:106C3000740044657669636520436C69656E7420F1
:106C4000506F72740044657669636520556E6963A0
:106C500061737420506F72740044657669636520B7
:106C600042726F61646361737420506F7274004884
:106C70006F73742053657276657220506F72740062
:106C8000486F737420436C69656E7420506F727422
:106C90000064656661756C747320757064617465F9
:106CA000642073756365737366756C6C79004465F5
:106CB0006661756C74204443422057726974652084
:106CC0004572726F720044434220526561642045F0
:106CD00072726F7200526573657420746865206407
:106CE000657669636520746F2074686520646566E5
:106CF00061756C742073657474696E67730A0D0036
:106D00005265626F6F74207468652064657669638C
:106D10006520776974686F757420736176696E6732
:106D2000206368616E6765730A0D002A2A2A2A2A81
:106D30002A2A2A2A2A2A2A2A2A2A2A2A2A2A2A2AB3
:106D40002A2A2A2A2A2A2A2A2A2A2A2A2A2A2A2AA3
:106D50002A2A2A2A2A2A2A2A2A2A2A2A2A2A2A2A93
:106D60002A2A2A2A2A2A2A2A2A0A0D00252D3234DA
:106D7000733A2025303262780A0D0020204F7020AF
:106D8000436F64650020204F7074696F6E0020208F
:106D90004E6574776F726B00252D3234733A20255F
:106DA00064750A0D00202042726F61646361737420
:106DB00020506F727400252D3234733A20256C7880
:106DC0000A0D0020205365727665724950002573C4
:106DD000257300676976656E2070617373776F72D3
:106DE00064203D202573206C3D25647520703D2571
:106DF00064750A0D00214572726F7221203A207469
:106E00006F6F206D616E7920636861726163746574
:106E1000727320656E74657265640A0D002020200F
:106E20002020202020202070617373776F726420EF
:106E300063616E206265206265747765656E2031DE
:106E400020616E6420313020636861726163746513
:106E500072730A0D00202020202020202020206195
:106E6000636365707461626C6520636861726163FD
:106E700074657273206172652025730A0D002145C7
:106E800072726F7221203A20696E76616C6964209B
:106E90006368617261637465727320696E206E65E8
:106EA000772070617373776F72640A0D00214572E9
:106EB000726F7221203A206E6F206E6577207061AC
:106EC0007373776F726420676976656E2E0A0D00A2
:106ED00020557361676520203A206368616E67659D
:106EE0005F70617373776F7264203C6E657720709A
:106EF000617373776F72643E0A0D00214572726F81
:106F00007221203A20696E76616C69642070617329
:106F100073776F72642073746F7265640A0D007307
:106F2000746F7265642070617373776F726420721E
:106F30006573657420746F2064656675616C740A8E
:106F40000D00616C6C20636861727320666F756EF2
:106F50006420703D25647520652564750A0D0073F5
:106F6000746F7265642070617373776F72642076DA
:106F7000616C69640A0D006E6F206D617463680A4C
:106F80000D004C43414C203D20454E41424C454470
:106F90000A0D004C43414C203D2044495341424C92
:106FA00045440A0D003031323334353637383961D3
:106FB00062636465666768696A6B6C6D6E6F707139
:106FC00072737475767778794142434445464748F1
:106FD000494A4B4C4D4E4F505152535455565758A9
:106FE000595A21402324255E262A28292D5F3D2B2E
:106FF0005B5D3A3B3C3E2F0030313233343536371F
:1070000038396162636465666768696A6B6C6D6E66
:107010006F70717273747576777879414243444525
:10702000464748494A4B4C4D4E4F50515253545588
:10703000565758595A21402324255E262A28292D9F
:107040005F3D2B5B5D3A3B3C3E2F00EB7008E70950
:10705000F608DFFA801B89828A831410E70AF59309
:10706000E0A3F608DFFA8009F593E493A3F608DFBE
:10707000F9ECFAA9F0EDFB2288F0EF60010E4E600A
:10708000F088F0ED60C51410E7E7CB700E88828CB5
:10709000838B93E709F0A3DFFA80D61410E72A89DF
:1070A000828A83F593ECFAE0A3C8C582C8CCC58375
:1070B000CCCBC593CBF0A3C8C582C8CCC583CCCB01
:1070C000C593CBDFE2DEE080AA89828A83F593EC68
:1070D000FAE493A3C8C582C8CCC583CCCBC593CBF7
:1070E000F0A3C8C582C8CCC583CCCBC593CBDFE1A8
:1070F000DEDF02007073EB7002E72289828A83145C
:1071000010E704F593E022F593E49322F8EB700680
:10711000E7C828F3E82289828A831410E708F593E8
:10712000E0C828F0E822F593E49322BB000327F798
:1071300022F8EB89828A831410E706F593E028F0A1
:1071400022F593E4932822BB0002F722BB80005073
:107150000989828A838B931593F022EF8DF0A4A87E
:10716000F0CF8CF0A428CE8DF0A42EFE22C5F0F82E
:10717000A3E028F0C5F0F8E582158270021583E0DF
:1071800038F022A3F8E0C5F025F0F0E58215827012
:10719000021583E0C838F0E822EB7007E7F5F00944
:1071A000E7192289828A831410E708F593E0F5F045
:1071B000A3E022F593E493F5F074019322BB000B56
:1071C00009C5F027F7C5F01937F722F8EB89828A4D
:1071D000831410E707F593E80200716DF5937401CD
:1071E0009325F0F5F0E4933822BB0006F709A7F0E9
:1071F0001922BB8000500D89828A838B931593F0EE
:10720000E5F0A3F022E88FF0A4CC8BF0A42CFCE9ED
:107210008EF0A42CFC8AF0EDA42CFCEA8EF0A4CD18
:10722000A8F08BF0A42DCC3825F0FDE98FF0A42C2C
:10723000CD35F0FCEB8EF0A4FEA9F0EB8FF0A4CFDF
:10724000C5F02ECD39FEE43CFCEAA42DCE35F0FD90
:10725000E43CFC2275F008758200EF2FFFEE33FE50
:10726000CD33CDCC33CCC58233C5829BED9AEC991E
:10727000E58298400CF582EE9BFEED9AFDEC99FCC0
:107280000FD5F0D6E4CEFBE4CDFAE4CCF9A8822207
:10729000B800C1B90059BA002DEC8BF084CFCECD27
:1072A000FCE5F0CBF97818EF2FFFEE33FEED33FD60
:1072B000EC33FCEB33FB10D703994004EB99FB0F45
:1072C000D8E5E4F9FA227818EF2FFFEE33FEED331C
:1072D000FDEC33FCC933C910D7059BE99A4007EC94
:1072E0009BFCE99AF90FD8E0E4C9FAE4CCFB2275DB
:1072F000F010EF2FFFEE33FEED33FDCC33CCC8336F
:10730000C810D7079BEC9AE899400AED9BFDEC9AD0
:10731000FCE899F80FD5F0DAE4CDFBE4CCFAE4C848
:10732000F922CFF4CFCEF4CECDF4CDCCF4CC22C321
:10733000E49FFFE49EFEE49DFDE49CFC22EB9FF5B0
:10734000F0EA9E42F0E99D42F0EC6480C8648098C7
:1073500045F022EB9FF5F0EA9E42F0E99D42F0E80D
:107360009C45F022E8600FECC313FCED13FDEE1317
:10737000FEEF13FFD8F122E86010ECA2E713FCED5A
:1073800013FDEE13FEEF13FFD8F022E8600FEFC3FA
:1073900033FFEE33FEED33FDEC33FCD8F122EB701E
:1073A00006E9F80200783089828A831410E706F52E
:1073B000930200783CF59302007848BB0006E9F898
:1073C00002007858BB8000500C89828A838B931509
:1073D000930200740B227401FF3395E0FEFDFCA3C1
:1073E000A3A3E0CF2FF0E582158270021583E0CED3
:1073F0003EF0E582158270021583E0CD3DF0E58216
:10740000158270021583E0CC3CF022ECF0A3EDF085
:10741000A3EEF0A3EFF022A42582F582E5F03583F8
:10742000F58322EB7006E9F80200786489828A838A
:107430001410E706F5930200786DF5930200789634
:10744000D093D083D082F8E4937012740193700DBE
:10745000A3A393F8740193F5828883E47374029371
:107460006860EFA3A3A380DF8B938A83898215933F
:1074700053937FE473759300E50E2582F582E50D45
:107480003583F583B50D0485820E2210AF06858203
:107490000EF50D2285820EF50DD2AF22759300E513
:1074A0000E2582F582E50D3583F58322EB7008E722
:1074B00009F60870FA801B89828A831410E70AF59E
:1074C00093E0A3F60870FA8009F593E493A3F60815
:1074D00070F9ECFAA9F0EDFB2288F0ED60CE141003
:1074E000E7F0CB700E88828C83F593E709F0A370E8
:1074F000FA80DF1410E72889828A83F593ECFAE09A
:10750000A3C8C582C8CCC583CCCBC593CBF0A3C8D8
:10751000C582C8CCC583CCCBC593CB70E280B5897E
:10752000828A83F593ECFAE493A3C8C582C8CCC5DC
:1075300083CCCBC593CBF0A3C8C582C8CCC583CCC4
:10754000CBC593CB70E1808CEB700C87F009E6081B
:10755000B5F019DFF6801589828A831410E711F5DA
:1075600093E0F5F0A3E608B5F002DFF5020075F947
:10757000F593E493F5F0A3E608B5F07DDFF48079A8
:10758000CB701388828C838B9387F009E493A3B527
:10759000F067DFF580631410E73089828A83F59302
:1075A000ECFAE0F5F0A3C8C582C8CCC583CCCBC546
:1075B00093CBE493A3C8C582C8CCC583CCCBC59379
:1075C000CBB5F035DFDCDEDA802F89828A83F59354
:1075D000ECFAE493F5F0A3C8C582C8CCC583CCCB44
:1075E000C593CBE493A3C8C582C8CCC583CCCBC517
:1075F00093CBB5F004DFDBDED97FFFB5F0020F22BD
:1076000040027F0122020075480200758088F0EF79
:1076100060010E4E60EEED60EC1410E7ECCB7012E2
:1076200088828C83F59387F009E0A3B5F0CBDFF671
:1076300080C71410E72F89828A83F593ECFAE0F56E
:10764000F0A3C8C582C8CCC583CCCBC593CBE0A37F
:10765000C8C582C8CCC583CCCBC593CBB5F09ADF67
:10766000DDDEDB809489828A83F593ECFAE493F57E
:10767000F0A3C8C582C8CCC583CCCBC593CBE0A34F
:10768000C8C582C8CCC583CCCBC593CBB5F004DFCD
:10769000DCDEDA020075F9EF60010E4E6027EB7058
:1076A00009E76D602409DFF9801B89828A83141041
:1076B000E718F593E06D7008AB930BAA83A98222BB
:1076C000A3DFF1DEEFE4F9FAFB22F593E4936D70AA
:1076D00007E5932481FB80E3A3DFF1DEEF80E6EF93
:1076E0004E6022EF60010EEDBB0007F709DFFCA939
:1076F000F022BB8000500E89828A838B931593F011
:10770000A3DFFCDEFA22EB701BE9D398500EE92FC1
:10771000F9E82FF819E718F6DFFA8025E709F608E7
:10772000DFFA801D89828A831410E70AF593E0A3AB
:10773000F608DFFA800B89828A83E493A3F608DFD8
:10774000F9ECFAA9F0EDFB2288F08E83EF60010ED0
:107750004E60EE88F0ED60AE1410E7E5CB700E8859
:10776000828C838B93E709F0A3DFFA80D41410E7AF
:1077700066F593D3E998EA9CE5939B505CE82FF873
:10778000EC3583FCE43BFBE92FF582EA3583F58396
:10779000E43593F5930582D582090583D5830215D7
:1077A0009315831582E0C8C582C8CCC583CCCBC5F0
:1077B00093CB0582D582090583D583021593158362
:1077C0001582F0C8C582C8CCC583CCCBC593CBDFAE
:1077D000C4DEC202007743802A89828A83ECFAE001
:1077E000A3C8C582C8CCC583CCCBC593CBF0A3C8F6
:1077F000C582C8CCC583CCCBC593CBDFE2DEE0022B
:1078000000774389828A83F593ECFAE493A3C8C591
:1078100082C8CCC583CCCBC593CBF0A3C8C582C8E6
:10782000CCC583CCCBC593CBDFE1DEDF0200774351
:10783000E6FC08E6FD08E6FE08E6FF22E0FCA3E021
:10784000FDA3E0FEA3E0FF22E493FC740193FD742A
:107850000293FE740393FF22ECF608EDF608EEF6B1
:1078600008EFF622E6FB08E6FA08E6F922E0FBA3B9
:10787000E0FAA3E0F922F8E0FBA3A3E0F925F0F099
:10788000E582158270021583E0FA38F022EBF0A34E
:10789000EAF0A3E9F022E493FB740193FA740293F3
:1078A000F922BB001CD093D0F0D0E0F8D0E0C9FBA7
:1078B000D0E0FAD0E0CBC8C0E0C0F0C093020078BE
:1078C000F6BB80005022D093D0F0D0E0F8D0E0C9D1
:1078D000F582D0E0CAF583D0E0CB14C8C0E0C0F098
:1078E000C09388930200788DD093D083D082D0E06B
:1078F000D0E0D0E0E473EBF608EAF608E9F62252AD
:1079000065616420636F6E66696775726174696F23
:107910006E2064617461203A2000526561642064C5
:10792000656661756C7420636F6E666967757261F8
:1079300074696F6E20646174612E200A0D0031300D
:107940002D393830322D30315F31585800313233D3
:1079500034006661696C656421202877726F6E67F8
:1079600020636865636B73756D290A0D00496E7637
:10797000616C696420636F6E6669677572617469B2
:107980006F6E2064617461210A0D00706173730A67
:107990000D00646174612073617665640A0D0046B0
:1079A00061696C656420746F2070726F6772616DBD
:1079B00020436F6E666967726174696F6E204461FF
:1079C000746121210A0D00202044657669636520D9
:1079D0004E616D6520202020202020202020203A8C
:1079E00020002563000A0D0020204D414320416402
:1079F0006472657373202020202020202020202006
:107A00003A20002530326278200020204E657477BD
:107A10006F726B2053657474696E67732020202029
:107A200020203A200025303464780D0A00202020E0
:107A3000205365727665722F436C69656E742020E1
:107A400020202020203A20436C69656E740020209D
:107A500020205365727665722F436C69656E7420C1
:107A60002020202020203A20536572766572002065
:107A70002020204448435020202020202020202067
:107A8000202020202020203A20456E61626C656411
:107A90000020202020444843502020202020202067
:107AA0002020202020202020203A20446973616279
:107AB0006C65640020202020554450202020202088
:107AC0002020202020202020202020203A204F6E1F
:107AD000002020202055445020202020202020203D
:107AE0002020202020202020203A204F66660020E1
:107AF00020202020202020202054435020202020FF
:107B000020202020203A204F6E00202020202020FE
:107B10002020202020202020205443502020203AC4
:107B2000204F6666002020202042726F616443610E
:107B3000737420202020202020202020203A204F55
:107B40006E002020202042726F61644361737420B4
:107B5000202020202020202020203A204F66660070
:107B600020204465766963652053657276657220CE
:107B700049502020202020203A20002562752E0028
:107B8000256275002000506F727420203A20002575
:107B9000647528253034647829002020486F737478
:107BA00020536572766572204950202020202020C5
:107BB00020203A20007E7E7E7E7E7E7E7E7E7E7EC1
:107BC0007E7E7E7E7E7E7E7E7E7E7E7E7E7E7E7ED5
:107BD0007E7E7E7E7E7E7E7E7E7E7E7E7E7E7E7EC5
:107BE0007E7E7E7E7E7E7E7E7E7E7E7E7E7E7E7EB5
:107BF0007E7E7E7E7E7E7E7E7E7E7E7E7E7E7E7EA5
:107C00007E7E7E7E7E7E7E7E7E7E7E7E7E0A0D20D7
:107C1000202020207C002534647820000A0D2020BC
:107C2000202020202D2D2D2D2D2D2D2D2D2D2D2DB8
:107C30002D2D2D2D2D2D2D2D2D2D2D2D2D2D2D2D74
:107C40002D2D2D2D2D2D2D2D2D2D2D2D2D2D2D2D64
:107C50002D2D2D2D2D2D2D2D2D2D2D2D2D2D2D2D54
:107C60002D2D2D2D2D2D2D2D2D2D2D2D2D2D2D2D44
:107C70002D2D2D2D2D2D000A0D25346478203A2030
:107C800000253034647820007E7E7E7E7E7E7E7E7F
:107C90007E7E7E7E7E7E7E7E7E7E7E7E7E7E7E7E04
:107CA0007E7E7E7E7E7E7E7E7E7E7E7E7E7E7E7EF4
:107CB0007E7E7E7E7E7E7E7E7E7E7E7E7E7E7E7EE4
:107CC0007E7E7E7E7E7E7E7E7E7E7E7E7E7E7E7ED4
:107CD0007E7E7E7E7E7E7E7E7E7E7E7E7E7E7E7EC4
:107CE0000A0D20202020200000000040008000C05D
:107CF00001000141018101C102010242028202C26E
:107D000003020343038303C304030444048404C43D
:107D100005040545058505C506050646068606C60D
:107D200007060747078707C708070848088808C8DD
:107D300009080949098909C90A090A4A0A8A0ACAAD
:107D40000B0A0B4B0B8B0BCB0C0B0C4C0C8C0CCC7D
:107D50000D0C0D4D0D8D0DCD0E0D0E4E0E8E0ECE4D
:107D60000F0E0F4F0F8F0FCF100F1050109010D01D
:107D700011101151119111D112111252129212D2ED
:107D800013121353139313D314131454149414D4BD
:107D900015141555159515D516151655169616D68E
:107DA00017161756179717D718171857189818D85F
:107DB00019181958199919D91A191A591A9A1ADA2F
:107DC0001B1A1B5A1B9B1BDB1C1B1C5B1C9C1CDCFF
:107DD0001D1C1D5C1D9D1DDD1E1D1E5D1E9E1EDECF
:107DE0001F1E1F5E1F9F1FDF201F205F20A020E09F
:107DF0002120216021A121E12221226122A222E26F
:107E00002322236223A323E32423246324A424E43E
:107E10002524256425A525E52625266526A626E60E
:107E20002726276627A727E72827286728A828E8DE
:107E30002928296829A929E92A292A692AAA2AEAAE
:107E40002B2A2B6A2BAA2BEB2C2B2C6B2CAB2CEC80
:107E50002D2C2D6C2DAC2DED2E2D2E6D2EAD2EEE50
:107E60002F2E2F6E2FAE2FEF302F306F30AF30F020
:107E70003130317031B031F13231327132B132F2F0
:107E80003332337233B233F33433347334B334F4C0
:107E90003534357435B435F53635367536B536F690
:107EA0003736377637B637F73837387738B738F860
:107EB0003938397839B839F93A393A793AB93AFA30
:107EC0003B3A3B7A3BBA3BFB3C3B3C7B3CBB3CFC00
:107ED0003D3C3D7C3DBC3DFD3E3D3E7D3EBD3EFED0
:107EE0003F3E3F7E3FBE3FFF413AE20041395200F4
:107EF0004139530041395000413951004139540052
:107F000041394F004237C300004237BE00004137BD
:107F1000C500413AEE00423A550000443A100000D4
:107F20000000423A160001413A1519413A14014243
:107F30001B6A0000421B7A0000421B780000411BB4
:107F40006E00421B660000421B700000411F800053
:107F5000421B720000421B6C0000421B7E0000426C
:107F60001B7C0000411B6F00421B680000421B7419
:107F70000000411F8100421B760000411F82004229
:107F800008D5000042095600004210D80000420BFC
:107F900084000042102D000060290B5B50305F30E0
:107FA0002C50305F312C50305F322C50305F332CEE
:107FB00050305F342C50305F352C50305F362C50B1
:107FC000305F372C0060290B8650315F302C5031E8
:107FD0005F312C50315F322C50315F332C50315F88
:107FE000342C50315F352C50315F362C50315F3797
:107FF0002C0060290BAF50325F302C50325F312C97
:1080000050325F322C50325F332C50325F342C5060
:10801000325F352C50325F362C50325F372C006087
:108020002A0BD850335F302C50335F312C50335FE4
:10803000322C50335F332C50335F342C50335F3548
:108040002C50335F362C50335F372C000062000910
:108050005900000040008000C00100014101810181
:10806000C102012042028202C203020343038303CE
:10807000C304030444048404C405040545058505BC
:10808000C506050646068606C6070607470787078C
:10809000C708070848088808C8090809490989095C
:1080A000C90A090A4A0A8A0ACA0B0A0B4B0B8B0B2C
:1080B000CB0C0B0C4C0C8C0CCC0D0C0D4D0D8D0DFC
:1080C000CD0E0D0E4E0E8E0ECE0F0E0F4F0F8F0FCC
:1080D000CF100F1050109010D0111011511191119C
:1080E000D112111252129212D2131213531393136C
:1080F000D314131454149414D4151415551595153C
:10810000D516151655169616D6171617561797170D
:10811000D718171857189818D819181958199919DD
:10812000D91A191A591A9A1ADA1B1A1B5A1B9B1BAD
:10813000DB1C1B1C5B1C9C1CDC1D1C1D5C1D9D1D7D
:10814000DD1E1D1E5D1E9E1EDE1F1E1F5E1F9F1F4D
:10815000DF201F205F20A020E02120216021A1211D
:10816000E12221226122A222E22322236223A323ED
:10817000E32423246324A424E42524256425A525BD
:10818000E52625266526A626E62726276627A7278D
:10819000E72827286728A828E82928296829A9295D
:1081A000E92A292A692AAA2AEA2B2A2B6A2BAA2B2E
:1081B000EB2C2B2C6B2CAB2CEC2D2C2D6C2DAC2DFF
:1081C000ED2E2D2E6D2EAD2EEE2F2E2F6E2FAE2FCF
:1081D000EF302F306F30AF30F03130317031B0319F
:1081E000F13231327132B132F23332337233B2336F
:1081F000F33433347334B334F43534357435B4353F
:10820000F53635367536B536F63736377637B6370E
:10821000F73837387738B738F83938397839B839DE
:10822000F93A393A793AB93AFA3B3A3B7A3BBA3BAE
:10823000FB3C3B3C7B3CBB3CFC3D3C3D7C3DBC3D7E
:10824000FD3E3D3E7D3EBD3EFE3F3E3F7E3FBE3F4E
:10825000FF410958004110C300410C26004108D4D9
:10826000004110C8004110CB004110CE004110D198
:10827000004110D3004110D5004110C7004110CA81
:10828000004110CD004110D0004110D2004110D467
:10829000004410BD0000000041362C0141362D0283
:1082A00041362E0441362F084136301041363120F8
:1082B00041363240413633014136340241363504CD
:1082C00041363608413637014136380241363904E5
:1082D00041363A0841363B1041363C0141363D02B9
:1082E00041363E0441363F08413640104136412078
:1082F0004136424041364380411B640041177C00B7
:10830000411B650041173300411B630041181D00EC
:108310004631CF00123456789A46323900000000B8
:10832000000041322D004302D60102DB4300A301CD
:1083300002DB4300940102DB4825FE4153495858B3
:108340004953414316A90110E34C260953696D7442
:10835000656B6B65746D6953413AFB01412ACC0032
:10836000422A9C0000412A9E00442ACD00000000C1
:10837000462AC60000000000004137890041378AC4
:108380000141378400423782000044377E000000FC
:1083900003443785000000004130AB5A432F1E8153
:1083A000607F4330240000004230AC00004330B115
:1083B0008160834330AE816093412F210044302798
:1083C00000000000606C2FB88160A28160AA0000EC
:1083D000008160B38160D28160D782558C8160D981
:1083E0008160F981610082AA2381610381612F810B
:1083F000613E82A7F181614181616E81617A82A7CC
:108400006E81617F8161A98161B682ACEC8161BBC3
:108410000000000000000000000000008161FF007B
:10842000000082A70481620481622381622981E8BD
:108430006D81622C423AE06000004839240000005F
:108440000000000000E5082475F582E43435F5836A
:10845000759300E0050822900035723017049000F3
:108460003575E475F00112007876020070F6201080
:10847000E57F2ED2108018EF540F2490D43440D4CE
:10848000FF30140BEF24BFB41A0050032461FFE542
:108490000960021509050CE50C7002050B30171177
:1084A00090003572E475F00112007876EF020071E9
:1084B00047020090FB7403D2178003E4C217F5084B
:1084C000900035721200788DE4F509F50BF50CE596
:1084D0000960087F201200848F80F4750AFFC211A2
:1084E000C210C212C213C215C216C218120084579B
:1084F000FF700E3017067F00120084A0AF0CAE0B89
:1085000022B42563C2D5C21412008457FF24D0B40C
:108510000A00501A75F00A780930D50508B6FF012F
:1085200006C6A426F620D5047002D21380D824CF24
:10853000B41A00EF5004C2E5D214020086CDD21165
:1085400080C4D21080BED21280BAD2D580B8D215E3
:1085500080B27F201200848F2012077401B50900B9
:1085600040F012008445FF1200848F020084CFD2B5
:1085700018D216808F12008445FB12008445FA122F
:10858000008445F94A4B700679A47A877B812012D2
:108590003DE50960397E00E9C0E02EF9EAC0E0342B
:1085A00000FA120070F6F9D0E0FAD0E0C960060EC9
:1085B000EE650A70E2C2D5EBC0E0EAC0E0E9C0E0D7
:1085C000EE12008715D0E0F9D0E0FAD0E0FB1200FF
:1085D00070F6FF6096EBC0E0EAC0E0E9C0E0120090
:1085E000848FD0E02401F9D0E03400FAD0E0FBE53C
:1085F0000A0460DAD50AD70200856B7BFF7A877997
:1086000011D2128089791080027908C216C21880AE
:1086100008D2D5790A8004790AC2D5E50A04700225
:10862000F50AE4FAFDFEFF12008445FC7B082011E8
:108630001612008445FD7B1030100C12008445FE9C
:1086400012008445FF7B20EC3382D592D55013C3B2
:10865000E43010069FFFE49EFEE42011039DFDE43C
:108660009CFCE4CBF8C211EC700CCFCECDCCE8244E
:10867000F8F870F38017C3EF33FFEE33FEED33FDF0
:10868000EC33FCEB33FB994002FB0FD8E9EB3011E4
:1086900005F8D0E0C448B211C0E00AEC4D4E4F7866
:1086A000207B0070C2EAB50A0040BCC0E01200871F
:1086B00017D0F0D0E0201104C4C0E0C4B211C0F063
:1086C00012008478D0F0D5F0EA020084CF12007452
:1086D0004085755386055885424C853E4286094F34
:1086E00086114486114985584386175585FB468572
:1086F000FB4585FB4787C15085462D854A2E8571F0
:108700002B854E23856F2087AD2A85044800008580
:10871000673F3F3F00790AA2D5201314301509B9ED
:1087200010020404B9080104A2D520160250010465
:1087300020126D9212B509005036C0E07F20301330
:108740001A7F30A21272167215501012008770C272
:1087500012C216C215C2187F308010301503E9C04E
:10876000E01200848F301503D0E0F9D0E0B509CADB
:108770003015197F30B9100D1200848F7F583014D6
:10878000077F788003B908041200848F3012067FB7
:108790002D0200848F7F202018F77F2B2016F222D5
:1087A000921280CC286E756C6C2900D21112008454
:1087B000453011F7C211780930D50108F60200855D
:1087C00004120084457F4960087F4310E7027F5808
:1087D00014C0E0EF12008480743A12008480D0E06C
:1087E000600DC0E0C412008478D0E012008478D21A
:1087F0001375090402008605F000FE7650352D76CB
:1088000050362D00F100000000000000F4FFFF00D2
:10881000F30000F50000000000000000F80000F97F
:108820000000486172647761726520696E69742026
:10883000202020202020202020203A2070617373E7
:108840000A0D00495020203A202562752E256275B8
:108850002E2562752E2562750A0D00754320466926
:10886000726D7761726520504E20202020202020DC
:108870002020203A200025303262782D0025303229
:10888000627800203A2025630A0D004650474120B7
:108890004669726D7761726520504E20202020203D
:1088A0002020203A2000446562756720526F75745D
:1088B000696E6573202020202020202020203A206F
:1088C0000064697361626C65640A0D00656E6162C3
:1088D0006C65640A0D005472616E736D6974204D8D
:1088E0006F646520202020202020202020203A2096
:1088F000005365727665720A0D00436C69656E748B
:108900000A0D002A2A2A2A2A2A2A2A2A2A2A2A2A2E
:108910002A2A2A2A2A2A2A2A2A2A2A2A2A2A2A2AB7
:108920002A2A2A2A2A2A2A2A2A2A2A2A2A2A2A2AA7
:108930002A2A2A2A2A2A2A2A0A0D004574686572D8
:108940006E6574204C696E6B205370656564203DC4
:10895000206270730A0D00444843502020202020DC
:10896000696E697420202020202020202020203AB9
:108970002000706173730A0D002A2A4552524F522B
:108980002A2A0A0D00444843502041737369676ED8
:108990006564204950202020203A2000444843505C
:1089A00020726573706F6E7365202D2D2000206618
:1089B00061696C210A0D00496E737472756D656E84
:1089C000742050617274204E756D62657220203A79
:1089D0002025730A0D0031302D39383032004669B8
:1089E000726D77617265204C61737420526576698F
:1089F0007365642020203A2025732025730A0D001A
:108A00004D617220313020323032360031353A3308
:108A1000303A35370045746865726E6574204C696C
:108A20006272617279205665722E2020203A2025CC
:108A3000730A0D00332E312E323030002A2A2A2AB2
:108A40002A2A2A2A2A2A2A2A2A2A2A2A2A2A2A2A86
:108A50002A2A2A2A2A2A2A2A2A2A2A2A2A2A2A2A76
:108A60002A2A2A2A2A2A2A2A2A2A2A2A2A2A2A2A66
:108A70002A2A2A2A2A0A0D00554152542D30202034
:108A800020696E69742020202020202020202020B2
:108A90003A20706173732020200062617564203A6F
:108AA000202530326278200A0D00554152542D3174
:108AB000202020696E697420202020202020202082
:108AC00020203A20706173730A0D00526561646959
:108AD0006E67204C69676874696E67204C6F6F6BB6
:108AE0007570205461626C650A0D0031323030407F
:108AF00032354D487A00323430304032354D487A84
:108B000000343830304032354D487A003936303014
:108B10004032354D487A0031393230304032354DAF
:108B2000487A0032383830304032354D487A003398
:108B3000383430304032354D487A003537363030B1
:108B40004032354D487A0037363830304032354D76
:108B5000487A0039343735304032354D487A003163
:108B600031353230304032354D487A003132303094
:108B70004035304D487A00323430304035304D4841
:108B80007A00343830304035304D487A003936304C
:108B9000304035304D487A00313932303040353050
:108BA0004D487A0032383830304035304D487A0000
:108BB00033383430304035304D487A003537363030
:108BC000304035304D487A00373638303040353017
:108BD0004D487A0039343735304035304D487A00C9
:108BE0003131353230304035304D487A0031323015
:108BF00030403130304D487A0032343030403130FE
:108C0000304D487A0034383030403130304D487A79
:108C10000039363030403130304D487A0031393209
:108C20003030403130304D487A00323838303040C2
:108C30003130304D487A00333834303040313030C4
:108C40004D487A003537363030403130304D487A33
:108C5000003736383030403130304D487A003934C2
:108C6000373530403130304D487A0031313532308F
:108C700030403130304D487A0020203132303040A1
:108C800032354D487A000A0D002D2D527848656125
:108C900064202564752C2052785461696C20256409
:108CA000752C205278436E74202564752D2D0A0D85
:108CB000000A0D2530346478203A002025303262D5
:108CC00078002D2D52784865616420253034647811
:108CD0002C2052785461696C2025303464782C2023
:108CE0005278436E74202564752D2D20000A0D2ABC
:108CF0002A2A2A2A2A2A2A2A2A2A2A2A2A2A2A2AD4
:108D00002A2A2A2A2A2A2A2A2A2A2A2A2A2A2A2AC3
:108D10002A2A2A2A2A2A2A2A2A2A2A2A2A2A2A2AB3
:108D20002A2A2A2A2A2A2A2A2A2A2A2A2A2A2A2AA3
:108D30002A2A2A2A2A2A2A0A0D0055445020686F16
:108D4000737420636C69656E7420706F7274202078
:108D500020203A20002A2A4552524F522120554EB7
:108D600041424C4520544F204352454154452053E5
:108D70004F434B45542A2A0A0D002564750A0D00FD
:108D800055445020646174612000706F727420201B
:108D90002020202020202020203A202A2A42494E2C
:108DA00044494E47204552524F52212A2A0A0D006B
:108DB00073657276657220706F7274202020203A7D
:108DC000202564750A0D0073657276657220706FD8
:108DD0007274202020203A202A2042494E44494ED5
:108DE00047204552524F5221202A0A0D00636C69D8
:108DF000656E7420706F72742020202020203A202D
:108E00002564750A0D004E65772055445020636F28
:108E10006E6E656374696F6E203A2069643D2562E9
:108E2000752C2072656D6F7465506F72743D25648A
:108E3000752C20736F636B65743D2562750A0D0098
:108E400054435049505F556470436C6F7365286993
:108E5000643D2562752C20736F636B65743D2562DC
:108E600075290A0D000A0D4E6577204C69676874F4
:108E7000696E67205461626C65204C6F6164656443
:108E80000A0D006E6F2076616C6964206F702D632F
:108E90006F6465203A2025303262780A0D000A0D91
:108EA00044656661756C74204C69676874696E67A7
:108EB000205461626C652044617461204C6F616470
:108EC00065640A0D000A0D4C69676874696E672055
:108ED0005461626C652044617461205361766564FD
:108EE0000A0D00696E76616C6964206F702D636F86
:108EF0006465203A2025303262780A0D0075EBAAAD
:108F000075EB55759D02787FE4F6D8FD9000000062
:108F10007F007E807D01E4F0A3DFFCDEFADDF875E2
:108F20000D66750ED875818702008F5602013B963B
:108F3000E493A3F85407240CC8C333C4540F44204B
:108F4000C8834004F456800146F6DFE4800C010239
:108F500004081020408090007EE8E47E019360CCFD
:108F6000A3FF543F30E509541FFEE493A360010EB4
:108F7000CF54E0B4E026E493FBA3E493FAA3E49394
:108F8000F9A3E493C083C08212007147D082D083DA
:108F9000A309E970010ADFEADEE880BE54C025E0DB
:108FA000602B408CE493A3FAE493A3F8E493A3C862
:108FB000C582C8CAC583CA759300F0759300A3C85B
:108FC000C582C8CAC583CADFE3DEE1808DE493A30E
:108FD000F8E493A34003F68001F208DFF402008F67
:108FE0005A55445020756E696361737420706F72B6
:108FF0007420202020202020203A2000202A2A42ED
:10900000494E44494E47204552524F52212A2A0A7E
:109010000D002564750A0D002A2042494E44494E30
:1090200047204552524F5221202A0A0D00625661B4
:109030006C6964526571203D2054525545202626A6
:1090400020006644656275674D6F6465203D204F62
:109050004E20262620004C656E677468203D204710
:109060006F6F640A0D004C656E677468203D204286
:1090700061640A0D005544502062726F616463613F
:10908000737420706F72742020202020203A2000FA
:109090002A2A42494E44494E47204552524F5221B6
:1090A0002A2A0A0D002564750A0D002A2042494E1D
:1090B00044494E47204552524F5221202A0A0D0062
:1090C000204D4143204241440A0D002025303262A8
:1090D00078002025303262780A0D00204D4143206F
:1090E000474F4F4420000000000000000000000037
:1090F0000000000000000000000000EFB40A087447
:109100000D12009107740A309811A899B8130CC277
:10911000983098FDA899C298B811F63099FDC29977
:10912000F599220D436F6E6E656374696F6E2069E9
:109130006E6163746976650A0D0010190D12006086
:1091400047BF0D027F0A020090FB90003AFCE0FF4F
:1091500022E4FFFE120070F6600C0FEF70010E09A2
:10916000E970F10A80EE220000000000000000001B
:109170000000000000000000000000900039D2EF65
:10918000F01200CE491200CCD79000177CE0601B93
:10919000900002D67401F0A37402F074F11200CEB4
:1091A0005B74021200CDBE7402803990001733E068
:1091B000900002D660177401F0A37402F074E912F3
:1091C00000CE5B74021200CDBE740280177401F0F1
:1091D000A37402F0A374DB1200CE5CA3740212002D
:1091E000CDBF7402F0A3E9F0900039D2E0640260D0
:1091F000030194941200CCB9788106E6700C18062D
:10920000E670071806E67002180678861200CEB3DC
:109210001200CC171200CC36FF64076005EF64051E
:109220007029900039D31200CC17241A1200CD09EE
:10923000120070F66478600301ACBA1200CC5624B8
:10924000191200CC6F78747620806D900039D3129B
:1092500000CC171200CC36700301ACBA1200CC5609
:109260001200CC4045F070030193511200CC56120D
:1092700000CE3174FF1200710C600301ACBA900093
:1092800039D31200CC17241B1200CC38FF640860BD
:10929000151200CC561200CC36FE64026004EEB407
:1092A000011DEFB40319900039D31200CC17241913
:1092B0001200CC6F787476801200B81101A8159056
:1092C0000039D31200CC17241B1200CC38FFD394E2
:1092D0000440067E047F0480007403A8070880020F
:1092E000C333D8FCFF900039D31200CC171200CE44
:1092F00031EF1200CCE71200CC17241B1200CD096D
:109300001200CC561200CC36540F147003019FE8A3
:1093100024FE601E14700301A68124FE700301A6C2
:109320008124FE700301A6812406600301ACBA010A
:1093300094CE1200CF19787476041200ACC17B0170
:10934000900039D3EB1200CCD71200CF25E901945D
:10935000F1900039D31200CC171200CC36540F64B0
:1093600003600301ACBA1200CC56241E1200CC38A4
:1093700070030194611200CC561200CDF21200CF9E
:109380002D64E07003EE6401600301ACBA90003913
:10939000D31200CC17241F1200CC38C3940440030E
:1093A0000194521200CD0D1200CC561200CCAC121A
:1093B00000CC131200CD871200CE9476291200CC77
:1093C000131200CDF27450120071471200CBA52485
:1093D0001A1200CC4C900039D31200CC17240F1273
:1093E00000CC38C394011200CC12241B1200CC4CC8
:1093F000F4600301AAC3900039D31200CC17240EE5
:109400001200CC38C394011200CC12241A1200CCE2
:109410004CF4600301AAC3900039D31200CC172486
:109420000D1200CC38C394011200CC122419120082
:10943000CC4CF4600301AAC3900039D31200CC17BE
:10944000240C1200CC38C394011200CC1224180151
:10945000AABF900039D31200CC171200CDF2E480DD
:109460001C900039D31200CC171200CDF21200CF9D
:109470002D64807003EE6407600301ACBA1200CC67
:10948000B3900039D31200CC171200CC6D787476EB
:109490000801A7F5900039D2E0FFB4031A1200CDFD
:1094A000938C831200CEC41200CCA5FCA3E04C70B8
:1094B0000301ACBA01992DEF64047040900039D3D8
:1094C0001200CC171200CC36540F24FE700C120080
:1094D000CC131200CF0BE4019FF0900008C7E020EE
:1094E000E20301A7F91200CF25900039D31200CC76
:1094F000171200CEF8120071E901A8FA1200CCB9D7
:109500001200CF391200CC13F9120070F6644560D6
:109510000301ACBAE924021200CC38FDFB7886E6E0
:109520006B7001E4600BEDFE08E6FDEE18F6ED0849
:10953000F61200CC1324031200CC38FF7887E66FB4
:109540007001E4600818E60818F6EF08F61200CC7F
:109550001324061200CC38543F600301ACBA120049
:10956000CC7924071200CC38600301ACBA90001704
:1095700033E060551200CF73FF4E604D1200CC13E4
:109580001200CC40FDACF0C3EC94E0503CED6F70A9
:1095900002EC6E600301ACBA1200CC13241212006C
:1095A000CC42FFAEF07855E6FC08E6FD6F7002EEA7
:1095B0006C6016EFF4600301ACBA12007199E470AC
:1095C00003E5F06C600301ACBA1200CC132409125D
:1095D00000CC38FF64067003019A17EF6411700322
:1095E000019688EF6401600301ACBA900000941208
:1095F00000CC1724141200CC38FF6408601EEF6002
:109600000301ACBA900017301200CC17F9EA494BAD
:10961000700301ACBA1200746801ACBA90000094F7
:109620001200CC1724141200CC6F1200CC131200BD
:10963000CC401200CD521200CC13240C1200CC42AC
:10964000FD1200CC791200CCFB1200CC13240C12BA
:1096500000CC621200CC1324121200CC421812006B
:10966000CD541200CC13240E1200CC42FD1200CCBB
:109670007924121200CCFD1200CC13240EF9E43A26
:10968000FAEE8FF0020071E9E47874F6900000972A
:109690007400F0A37401F01200CD93FDC39491EC1B
:1096A000940040030198011200CDB41200CEC712FD
:1096B00000CCA5FEA3E0FF4E70030197EE900000E2
:1096C000A31200CC1724161200CC42FDEF6D7003DC
:1096D000EE65F060030197EE1200CE381200CE6600
:1096E0001200CCA5FEA3E0FF4E601C900000A3A3D7
:1096F000E0FAA3E024141200CC42FDEF6D7003EEFB
:1097000065F060030197EE1200CD13FD4C70071257
:1097100000CD794E6059BCFF14BDFF111200CE3848
:10972000F5821200CD7BF47002EEF460421200CCA0
:1097300013240C1200CC421200CD90F5828C8312BF
:1097400000CD206F7002EC6E60030197EE1200CC2A
:1097500079240E1200CC421200CD90F5828C8375D4
:109760009300A3A3E0FCA3E06F7002EC6E707F1285
:1097700000CE38FF1200CE661200CCA5FCA3E04C50
:109780007023900000A31200CC1724141200CC42C6
:10979000FDACF01200CF7A24061200CD6EECF0A3DF
:1097A000EDF00198FF1200CD134C60030198FF12F9
:1097B00000CD794E60030198FF1200CC13240C12E7
:1097C00000CC421200CD90FDF5828C831200CD9E1C
:1097D0001200CC13240E1200CC42FFAEF08D828C0E
:1097E00083759300A3A3EEF0A3EFF00198FF900020
:1097F0000098E02409F090000097E03400F0019612
:1098000097E47883F61200CE84400301ACBA90004E
:1098100000A31200CC1724161200CC42FDEF25E065
:10982000245AF9ED677004E5F0196760057883063E
:1098300080D3E47883F61200CD5D40030198F512E1
:1098400000CD281200CCA5FEA3E04E60030198EFE6
:10985000900000A31200CC1724161200CC42FFAED9
:10986000F0E6FD1200CD291200CD9C900000A3125D
:1098700000CC1724141200CC421200CF022407F5AA
:1098800082E434001200CD9C1200CC13240C120090
:10989000CC421200CF022401F582E434001200CD44
:1098A0009C1200CC13240E1200CC421200CF0224D2
:1098B00003F582E434001200CD9CED75F009A42478
:1098C00009F582E43400F5837593007410F0ED75AA
:1098D000F009A42401F582E43400759300AF82906E
:1098E000000097F0A3EFF07874E64440F680067825
:1098F00083060198367883E66410700301ACBA7869
:109900008774E426F61874FF36F690001B64E012A4
:1099100000CD3874F72FF974021200CCCF7874E6BA
:109920004402F6E47884F608F61200C35E7885E611
:109930001846700301ACBA7885E6241C7987F718BD
:10994000E43619F77886E6FF1200CC131200CDCC6E
:1099500008E6FF1200CC1324031200CDCE1200CC77
:10996000132409F9E43AFA7411120071477885E674
:109970002408FF18E436FE900000A31200CC172440
:10998000181200CEFA120071E9900000A31200CC68
:1099900017241A1200CCAE1200CE38FF8E831200AC
:1099A000CEC41200CCA5FCA3E0FD1200CC132414FD
:1099B000F9E43AFAEC1200CD031200CF7A1200CE8D
:1099C0006B1200CCA5FEA3E01200CC1224161200EC
:1099D000CC621200CF731200CC12240C1200CC62A5
:1099E00008E6FE08E61200CC12240E1200CC621229
:1099F00000CD13FD1200CC132410F9E43AFAEC1256
:109A000000CD031200CD791200CC122412F9E43AF1
:109A1000FAEE8FF001AC2D1200CDE4F0A37400F04B
:109A2000A374A6F01200CC56C3900002D69582EA29
:109A300095834003019B04900039D3E0FBA3A3E08E
:109A40001200CC367003019AF51200CC5624041291
:109A500000CC42FFAEF01200CC1324161200CC4210
:109A60006F7003E5F06E6003019AF5900039D31230
:109A700000CC1724061200CC42FFAEF01200CC132B
:109A800024141200CC426F7003E5F06E7067120070
:109A9000CC79240C1200CC42FFAEF0900039D312E6
:109AA00000CC17F9120071996F7003EE65F07045E4
:109AB000E924021200CC42FFAEF01200CC13240EB7
:109AC0001200CC42B5072EE5F0B50629900039D337
:109AD0001200CC171200CC366407600301A05112AB
:109AE00000CC1324211200CC38543F6402600301DF
:109AF000A051019D59900039D4E475F023120071F2
:109B00006D019A241200CC1324211200CC38543F4A
:109B1000640270341200CC1324161200CC42787206
:109B2000A6F008F6E47883F61200CE84501AEF25EA
:109B3000E0243CF97873E667700418E6196770034F
:109B4000019CC678830680E01200CC132421120009
:109B5000CC3830E20301ACBA74141200CE947628EB
:109B60001200CC131200CDF2745012007147120093
:109B7000CC13241B1200CC38FF7883F61200CC13D0
:109B8000241F1200CC381200CC78241B1200CDA95F
:109B90001200CC13241F1200CC4C1200CC13241A38
:109BA0001200CC38FFF61200CC13241E1200CC3861
:109BB0001200CC78241A1200CDA91200CC13241E56
:109BC0001200CC4C1200CC131200CC36FFF612005F
:109BD000CC13241D1200CC381200CC7824191200AA
:109BE000CDA91200CC131200CC4A1200CC132418B9
:109BF0001200CC38FFF61200CC13241C1200CC3813
:109C00001200CC781200CDA71200CC13241C120035
:109C1000CC4C1200CC13241F1200CD09702212006C
:109C2000CC79241E1200CD0970161200CC79241DA7
:109C30001200CD09700A1200CC79241C1200CD0943
:109C40001200CC1324141200CC421200CD52120088
:109C5000CC1324161200CC42FD1200CC792414122D
:109C600000CCFD1200CC1324161200CC621200CCE2
:109C7000131200CC401200CF841200CC13240C121B
:109C800000CC42FD1200CC791200CCFB1200CC13A8
:109C9000240C1200CC621200CC1324121200CC420D
:109CA0001200CF841200CC13240E1200CC42FD12FD
:109CB00000CC7924121200CCFD1200CC13240E1219
:109CC00000CC6201ABF3900039D3E4F0A374FFF051
:109CD000A3F0E47883F61200CD5D505F1200CE173A
:109CE0001200CCA5700A1200CDD71200CCD7804B41
:109CF0007883E6FF75F0231200CE1B1200CCA5641A
:109D0000077033900039D31200CC17F94A601DE96F
:109D1000241A1200CC38FE75F023EFA424C0F5827B
:109D2000E5F034001200CCA5D39E400A78831200DF
:109D3000CDD71200CCD7788306809B900039D31200
:109D400000CC17F9F47002EAF4700301ACBAE9240C
:109D5000221200CD8912007147900039D31200CC35
:109D6000171200CF441200CE3174031200CCE71258
:109D700000CC172418F9E43AFA74031200CCE71265
:109D800000CC1724161200CC6F900039D31200CCEF
:109D9000172417F9E43AFA74041200CCE71200CC45
:109DA00017241B1200CC6F1200CC1324161200CC07
:109DB00042FF900039D31200CC1724041200CD6763
:109DC0001200CC671200CC1324141200CC42FF9076
:109DD0000039D31200CC1724061200CD671200CC34
:109DE000671200CC13240C1200CC42FF900039D330
:109DF0001200CC17F9E5F01200CC671200CC132446
:109E00000E1200CC42FF900039D31200CC17120082
:109E1000CD651200CC67900039D31200CC17120028
:109E2000CDEB74011200CCE71200CC17241E1200F7
:109E3000CC6F900039D31200CC171200CCAC90003C
:109E400039D31200CC171200CC6D787E1200CE42AE
:109E50001200CC17240C1200CC4C1200CE41120080
:109E6000CC17240D1200CC4C1200CE411200CC179E
:109E7000240E1200CC4C1200CE411200CC17240F3D
:109E80001200CC4C900039D31200CC171200CD44F4
:109E90001200CC13241B1200CC38FF900039D312CF
:109EA00000CC17240B1200CC4C1200CC13241A1235
:109EB00000CC38FF900039D31200CC17240A1200CE
:109EC000CC4C1200CC131200CC36FF900039D312C8
:109ED00000CC1724091200CC4C1200CC1324181209
:109EE00000CC38FF900039D31200CC1724081200A0
:109EF000CC4C7F017E0012018AB61200CC132422C2
:109F00001200CC38FF900039D31200CC17241C1259
:109F100000CC4C1200CC1324231200CC38FF90004C
:109F200039D31200CC171200CC4A1200CC132420D3
:109F30001200CC3854F0D394505003019FE8E478D9
:109F400083F61200CC1324201200CC381200CECF9E
:109F5000C333CE33CED8F91200CEDE4003019FE8E2
:109F6000ED1200CD381200CE021200CCA47882F699
:109F700060767882E6FDB40104080680C5ED6402CF
:109F800070571200CC9D6404704F1200CD35120042
:109F9000CE731200CCA51200CF8E1200CCA5FDED21
:109FA00078721200CD561200CE9EC39FEC9E5006D2
:109FB000AE04AF0580077872E6FE08E6FF90003930
:109FC000D31200CC171200CC60900039D31200CC11
:109FD0001724141200CC62800F1200CC83FF60089B
:109FE0007883EF26F6019F421200CC131200CD8732
:109FF000120071471200CC1324211200CC38440205
:10A00000120071471200CC132428F9E43AFA7402C2
:10A01000120071471200CC132429F9E43AFA7404AF
:10A02000120071471200CE9EEC1200CC12242A12AC
:10A0300000CC4C1200CC13242BF9E43AFAED1200B8
:10A04000CE94762C1200CC131200CDF2746001AACB
:10A05000A11200CC561200CF44E47874F6900008A8
:10A06000C7F01200CC1324211200CC3830E2139038
:10A070000039D31200CC1724191200CC6F762001BE
:10A08000A98B1200CC1324201200CC38C4540F2505
:10A09000E025E0FF7883F6C37887E69FFF18E69413
:10A0A00000CFC3941408F6EF940018F6081200CC01
:10A0B000F2500D1200CC1324211200CC3830E0668F
:10A0C000900039D31200CC1724081200CC0A2418AF
:10A0D0001200CC386F600301AA84900039D31200BB
:10A0E000CC1724091200CC0A1200CC366F60030191
:10A0F000AA84900039D31200CC17240A1200CC0A8B
:10A10000241A1200CC386F600301AA84900039D35E
:10A110001200CC17240B1200CC0A241B1200CC38DE
:10A120006F600301AA841200CC1324211200CC38E2
:10A1300020E40301A3DF900039D31200CC171200F2
:10A14000CC40FDACF04C700301A3DF1200CC5624D0
:10A150000CF9E43AFA120177391200CC13241C12DC
:10A1600000CC38FF9000009FE06F600301A2B112A5
:10A1700000CC79241D1200CC38FE900000A0E06EC7
:10A18000600301A2B11200CC79241E1200CC38FE6B
:10A19000900000A1E06E600301A2B11200CC79240E
:10A1A0001F1200CC38FE900000A2E06E600301A2F6
:10A1B000B19000009F1200CF121200CC17240C1295
:10A1C00000CEA8900000A01200CF121200CC1724DD
:10A1D0000D1200CEA8900000A11200CF121200CCE8
:10A1E00017240E1200CEA8900000A21200CF121267
:10A1F00000CC17240FF9E43AFAEE1200CCE7120073
:10A20000CC17241B1200CC38600301A2931200CC9F
:10A2100056241A1200CC381200CC5524181200CC47
:10A2200038C39EFE900039D6F01200CC5624161288
:10A2300000CC38131313541FFDC3EE9DFE1200CD46
:10A24000F9C3EE648094805008900039D6E0F4049D
:10A25000F0900039D6E0FE900039D31200CC1724DC
:10A26000171200CC381313543FFDC3EE9D1200CDDE
:10A27000F91200CC5624161200CC38131313541FB5
:10A280001200CC5524171200CC382E1200CC5512D7
:10A2900000CDA778747601900039D31200CC172432
:10A2A000181200CC381200CC551200CE31EE01A3AA
:10A2B000C7900039D31200CC17240C1200CC386F91
:10A2C000600301A3DF1200CC56240D1200CC0A2437
:10A2D0001D1200CC386F600301A3DF1200CBFD24F8
:10A2E0001E1200CC386F600301A3DF900039D31237
:10A2F00000CC17240F1200CC0A241F1200CC386F98
:10A30000600301A3DF900008C7E04480F0900039AB
:10A31000D31200CC17241B1200CC38600301A3AB6E
:10A320001200CC56241A1200CC38FF1200CC56244E
:10A33000181200CC38C39FFF900039D6F01200CC21
:10A340005624161200CC38131313541FFEC3EF9E6D
:10A35000FF1200CDF9C3EF6480948050089000395B
:10A36000D6E0F404F0900039D6E0FF900039D31223
:10A3700000CC1724171200CC381313543FFEC3EF40
:10A380009E1200CDF91200CC5624161200CC3813C0
:10A390001313541FFF1200CC5624171200CC382F71
:10A3A000FF1200CC5624181200CC4C787476019021
:10A3B0000039D31200CC1724181200CC38FF120039
:10A3C000CC561200CE31EF1200CCE71200CC17129F
:10A3D00000CCAC900039D31200CC171200CC6D1217
:10A3E00000CC1324221200CC38C39440501B9000A0
:10A3F00039D31200CC17241C1200CC38D3948040DF
:10A4000008900008C7E04440F0900039D31200CC17
:10A41000171200CC36540F14B40800400301ACBA34
:10A420009000A42F75F004A4C58325F0C5837302A2
:10A4300000A44F0200A47F0200A6270200A99202F6
:10A4400000AA190200AA620200AA840200A9727876
:10A4500074E620E00301ACBA1200CF6D76409000A4
:10A4600039D31200CC1724101200CCAE1200CCF05D
:10A4700040041200ACD1E47884F608F601A7F57820
:10A4800074E620E00301A61C1200CC132421120064
:10A49000CC386412600301A61C1200CC792420126F
:10A4A00000CC3854F0D39450500301A559E478837C
:10A4B000F61200CC1324201200CC381200CECFC3E9
:10A4C00033CE33CED8F91200CEDE400301A559EDCC
:10A4D0001200CD381200CE021200CCA47882F660B1
:10A4E000787882E6FDB40104080680C5ED64027048
:10A4F000591200CC9D640470511200CD351200CE6B
:10A50000731200CCA51200CF8E1200CCA5FDEDFF7A
:10A510007872EEF608EFF61200CE9EC39FEC9E50C6
:10A5200006AE04AF0580077872E6FE08E6FF9000ED
:10A5300039D31200CC171200CC60900039D312002E
:10A54000CC1724141200CC62800F1200CC83FF6061
:10A55000087883EF26F601A4B1900039D31200CC1D
:10A56000171200CDEB1200CF6D1200CC132418127D
:10A5700000CC38FF900039D31200CC172408120009
:10A58000CC4C1200CC131200CC36FF900039D31201
:10A5900000CC1724091200CC4C1200CC13241A1240
:10A5A00000CC38FF900039D31200CC17240A1200D7
:10A5B000CC4C1200CC13241B1200CC38FF90003975
:10A5C000D31200CC17240B1200CC4C7F017E00125A
:10A5D000018AB61200CC1324221200CC38FF90005E
:10A5E00039D31200CC17241C1200CC4C1200CC130F
:10A5F00024231200CC38FF900039D31200CC17125C
:10A6000000CC4A78747642900039D31200CC1724DB
:10A61000101200CCAE1200CF1901A7F57874762085
:10A620001200B811019B481200CC1324211200CC57
:10A630003830E0507887E62401FF18E436FE120136
:10A640008AB6787476101200CCF040067874E6442E
:10A6500002F61200ACC17B01900039D3EB1200CCA2
:10A66000D71200CD44900039D31200CC171200CD80
:10A67000EB74081200CCE71200CC17241B1200CC9C
:10A680006F01A8501200CC1324211200CC3830E501
:10A690005E1200CC7924261200CC381200CC79242A
:10A6A000271200CC387875F6E6D3788796E41896AA
:10A6B000400508E67875F67875E6FF7E0012018A97
:10A6C000B67875E6FFC37887E69FF618E69400F63D
:10A6D000900000991200CE29A3C91200CCD778753A
:10A6E000E6FF9000009AE48FF01200716D802AE47A
:10A6F0007875F61200CC1324261200CC381200CC48
:10A700007824271200CC38FDEDFF9000009AEE8FE0
:10A71000F01200716D1200CF391200CCF04015908C
:10A720000039D31200CC171200CC3620E4061200F8
:10A73000ACD180457887E61846703E1200CC1324D1
:10A74000211200CC3864107030900039D31200CC44
:10A7500017241E1200CC3860201200CC56241F1281
:10A7600000CC3860141200CC561200CCAC900039EA
:10A77000D31200CC171200CC6D1200CC132422127D
:10A7800000CC381200CC7824231200CC387C002472
:10A7900000FFEC3EFE7872F608EFF6900039D31217
:10A7A00000CC1724141200CC42FDACF0D3EF9DEE88
:10A7B0009C5005E6184670077872A60408A605782E
:10A7C00072E6FE1200CE411200CC171200CC6008D7
:10A7D000E65403700301ACBA900039D31200CC17D1
:10A7E0001200CCAC900039D31200CC171200CC6D03
:10A7F0007884F608F61200B8111200CE491200CC87
:10A80000D77874E630E51B1200CEB11200CC1724C5
:10A81000191200CC6F1200CC131200CF0B7414016C
:10A82000AA8C7874E630E4351200CEB11200CC1751
:10A830001200CD44900039D31200CC171200CDEB9A
:10A8400074041200CCE71200CC17241B1200CC6F4A
:10A850001200CC131200CF0B741101AA8C900008C7
:10A86000C7E030E10301ACBAD378851200CCF340E5
:10A87000667874E630E00E900039D31200CC1724CD
:10A88000101200CCAE900039D31200CC171200CCBD
:10A890004045F0702E1200CC5624121200CC42FF1C
:10A8A000AEF0D37885E69F18E69E4005A60608A67A
:10A8B000071200CF25900039D31200CC171200CE1A
:10A8C000F88025900039D31200CC171200CC4078C4
:10A8D00084A6F008F68015900039D31200CC172416
:10A8E00010F9E43AFAE4F5F0120071E9900039D376
:10A8F0001200CC17241B1200CC6F900000911200A4
:10A90000CE29C91200CCD3D378851200CCF34043B2
:10A91000900039D31200CC171200CC40FFAEF0D318
:10A920009400EE9400402CEF24287887F6E43E183B
:10A93000F6900008C7E0900002D630E00C1200CC80
:10A94000171200CF0B741880221200CC171200CD02
:10A950008780187874E620E10301ACBA7886760027
:10A960000876281200CC131200CD8712007147011F
:10A97000AA977874E620E00301ACBA900039D312AC
:10A9800000CC1724191200CC6F76101200B81101F8
:10A99000ACBA1200CCF040041200ACE31200CC13AD
:10A9A00024211200CC3830E0407874E6900039D38E
:10A9B00030E0221200CC171200CCDF1200CC17249A
:10A9C0001A1200CC6F900039D31200CC1724101249
:10A9D00000CCAE800E1200CC171200CDEB74061224
:10A9E0000071477F017E0080607874E630E01F9040
:10A9F0000039D31200CC171200CDEB74051200CC35
:10AA0000E71200CC1724101200CCAE01ACBA120031
:10AA1000CCF0500301ACBA806B1200CCF0400412B1
:10AA200000ACE31200CC1324211200CC3830E02714
:10AA3000900039D31200CC171200CCDF1200CC17D3
:10AA4000241A1200CC6F7F01FE12018AB678747648
:10AA5000101200B811802D1200CCF0500301ACBAD6
:10AA600080227874E620E00301ACBA900039D3125A
:10AA700000CC171200CCDF1200CC17241A1200CC25
:10AA80006F01ACBA1200CC131200CD8712007147CF
:10AA9000788676000876281200CC131200CDF27466
:10AAA00050120071471200CBA5241A1200CC4C9012
:10AAB0000039D31200CC17240F1200CC0A241B1229
:10AAC00000CC4C900039D31200CC1724081200CCD3
:10AAD0000A241C1200CC4C900039D31200CC17244D
:10AAE000091200CC0A1200CC4A900039D31200CCD3
:10AAF00017240A1200CC0A241E1200CC4C900039F4
:10AB0000D31200CC17240B1200CC0A241F1200CC45
:10AB10004C1200CC132409F9E43AFA74061200CC62
:10AB2000E71200CC1724041200CC421200CC1224ED
:10AB3000141200CD671200CC67900039D31200CCFC
:10AB40001724061200CC421200CC1224161200CD9B
:10AB5000671200CC671200CF731200CC12240C12C3
:10AB600000CC6208E6FE08E61200CC12240E1200A9
:10AB7000CC62900039D31200CC17F91200719912EF
:10AB800000CC1224101200CD671200CC679000395F
:10AB9000D31200CC1724021200CC421200CC122493
:10ABA000121200CD671200CC67900039D31200CC8E
:10ABB000171200CC36900002D630E4171200CC17E2
:10ABC00024231200CC6F1200CC132422F9E43AFAA9
:10ABD000E4801C1200CC172422F9E43AFA7416120D
:10ABE0000071471200CC132423F9E43AFA74D0120E
:10ABF0000071477886E6FF1200CC131200CDCC0816
:10AC0000E6FF1200CC1324031200CDCE1200CC13A9
:10AC100024261200CC6F1200CC1324271200CC6F14
:10AC20001200CC132424F9E43AFAE4F5F01200718E
:10AC3000E91200CC13F97445120071471200CC13CD
:10AC400024011200CC6F90001B65E0900002D6B486
:10AC5000010E1200CC172406F9E43AFA7440800B76
:10AC60001200CC172406F9E43AFAE41200714712F4
:10AC700000CC1324071200CC6F1200CC132408F967
:10AC8000E43AFA74FF12007147785806E61870012A
:10AC9000067857E6FC08E6FDEC1200CC12240412FC
:10ACA00000CC4CAF051200CC1324051200CC4C1282
:10ACB00000CC13240A1200CCAE22E47886F608F603
:10ACC000221200B811900002D9E0FEA3E0AA06F912
:10ACD000227874E64402F67886E6FE08E6FF120162
:10ACE0008AB622E6FE08E6FF12018AB62290001715
:10ACF00028E0FF900038F4EFF0E4900038F7F0A37C
:10AD0000F07874E66404600301AE56900038F4E015
:10AD1000FF75F01EA42432F582E5F03418F5837532
:10AD20009300E0FBA3E0FAA3E0F975F01EEFA42482
:10AD300038F582E5F03418F583759300EBF0A3EA5B
:10AD4000F0A3E9F075F01EEFA4242CF582E5F034B1
:10AD500018F583759300E0FEA3E0FF900038F4E05F
:10AD6000FD75F01EA4242EF582E5F03418F58375E8
:10AD70009300E0FAA3E02FFFEA3EFE75F01EEDA47B
:10AD80002430F582E5F03418F583759300EE8FF0EA
:10AD90001200716D900038F4E0FF75F01EA42426B7
:10ADA000F582E5F03418F583759300E0FE9000021B
:10ADB000D9E0FCA3E0FD8C83759300240CF582E4BC
:10ADC0003583F583759300EEF075F01EEFA424270C
:10ADD000F582E5F03418F583759300E0FF8D828CE1
:10ADE00083759300E582240DF582E43583F5837540
:10ADF0009300EFF0900038F4E0FF75F01EA42428D3
:10AE0000F582E5F03418F583759300E0FE8D828CB1
:10AE100083759300E582240EF582E43583F583750E
:10AE20009300EEF075F01EEFA42429F582E5F034CE
:10AE300018F583759300E0FF8D828C83759300E590
:10AE400082240FF582E43583F583759300EFF0904B
:10AE50000038F87401F0900038F4E0FF75F01EA49B
:10AE60002430F582E5F03418F583759300E0FCA3F7
:10AE7000E0FD900038F5ECF0A3EDF075F01EEFA4C6
:10AE80002421F582E5F03418F583759300E0FF90F6
:10AE90000038F4E0FE75F01EA4242AF582E5F034B3
:10AEA00018F583759300E0FBA3E0900002D9CBF086
:10AEB000A3EBF0ED4C600301B10E900008C7E02059
:10AEC000E70301B09E75F01EEEA4242EF582E5F096
:10AED0003418F583759300E0FCA3E04C700301B0D7
:10AEE00045900002D9E0FEA3E0FF8E837593002415
:10AEF0000CF582E43583F583759300E0FD9000380E
:10AF0000F4E0FC75F01EA42426F582E5F03418F573
:10AF100083759300EDF08F828E83759300E5822414
:10AF20000DF582E43583F583759300E0FF75F01E1F
:10AF3000ECA42427F582E5F03418F583759300EF2F
:10AF4000F0900002D9E0FEA3E0FF8E837593002409
:10AF50000EF582E43583F583759300E0FD900038AB
:10AF6000F4E0FC75F01EA42428F582E5F03418F511
:10AF700083759300EDF08F828E83759300E58224B4
:10AF80000FF582E43583F583759300E0FF75F01EBD
:10AF9000ECA42429F582E5F03418F583759300EFCD
:10AFA000F075F01EECA42435F582E5F03418F58335
:10AFB000759300E0F9A3E0FAA3E0900038F9C9F036
:10AFC000A3EAF0A3E9F0900038F9E0FBA3E0FAA3CC
:10AFD000E0F975F01EECA42432F582E5F03418F5A2
:10AFE00083759300EBF0A3EAF0A3E9F075F01EEC93
:10AFF000A4242EF582E5F03418F583759300E0FE65
:10B00000A3E0FF900038F5EEF0A3EFF0900038F4E5
:10B01000E0FD75F01EA4242CF582E5F03418F583CC
:10B02000759300EEF0A3EFF075F01EEDA4242EF55D
:10B0300082E5F03418F583759300E4F0A3F09000F6
:10B0400008C704804F900038F4E0FF75F01EA42478
:10B0500032F582E5F03418F583759300E0F9A3E04A
:10B06000FAA3E0900038F9C9F0A3EAF0A3E9F0757B
:10B07000F01EEFA4242CF582E5F03418F5837593C7
:10B0800000E0FFA3E0900038F5CFF0A3EFF09000D0
:10B0900008C77401F0900038F704F001B69CEFB4D3
:10B0A000011D78747610900038F4E075F01EA42429
:10B0B0001EF582E5F03418F5837593007403F09063
:10B0C0000038F4E0FE75F01EA42420F582E5F0348B
:10B0D00018F583759300E0FF75F01EEEA4241FF5AC
:10B0E00082E5F03418F583759300E075F00AA42426
:10B0F00081F582E43417F583759300E0FBA3E0FA51
:10B10000A3E0F5828A838B937D030200746E900026
:10B1100038F8E0600301B1D8900002D9E0FEA3E066
:10B12000FF8E83759300240CF582E43583F58375D7
:10B130009300E0FD900038F4E0FC75F01EA4242696
:10B14000F582E5F03418F583759300EDF08F828E6B
:10B1500083759300E582240DF582E43583F58375CC
:10B160009300E0FF75F01EECA42427F582E5F0348F
:10B1700018F583759300EFF0900002D9E0FEA3E08C
:10B18000FF8E83759300240EF582E43583F5837575
:10B190009300E0FD900038F4E0FC75F01EA4242834
:10B1A000F582E5F03418F583759300EDF08F828E0B
:10B1B00083759300E582240FF582E43583F583756A
:10B1C0009300E0FF75F01EECA42429F582E5F0342D
:10B1D00018F583759300EFF0D3900038F6E09400F3
:10B1E000900038F5E09400500301B810900038F753
:10B1F000E0FF04F0EF9402400301B810900038F42F
:10B20000E0FF75F01EA42438F582E5F03418F583CC
:10B21000759300E0F9A3E0FAA3E0900038F9C9F0D3
:10B22000A3EAF0A3E9F0900008C7E020E70301B328
:10B230007875F01EEFA4242EF582E5F03418F5831E
:10B24000759300E0FCA3E0FD4C7008900008C77403
:10B2500002F022900002DAE0240CFF900002D9E014
:10B260003400FAA9077B01120177399000009FE0B2
:10B27000FF900002D9E0FCA3E0FD8C8375930024CD
:10B280000CF582E43583F583759300EFF0900000B0
:10B29000A0E0FF8D828C83759300E582240DF582FA
:10B2A000E43583F583759300EFF0900000A1E0FF93
:10B2B0008D828C83759300E582240EF582E43583BC
:10B2C000F583759300EFF0900000A2E0FF8D828C73
:10B2D00083759300E582240FF582E43583F5837549
:10B2E0009300EFF0900038F4E0FF75F01EA42435D1
:10B2F000F582E5F03418F583759300E0FBA3E0FADE
:10B30000A3E0F975F01EEFA42432F582E5F03418BD
:10B31000F583759300EBF0A3EAF0A3E9F075F01E56
:10B32000EFA4242EF582E5F03418F583759300E040
:10B33000FEA3E0FF900038F4E0FD75F01EA4242C7D
:10B34000F582E5F03418F583759300EEF0A3EFF085
:10B35000900038F9E0FBA3E0FAA3E0F975F01EEDE8
:10B36000A42435F582E5F03418F583759300EBF0ED
:10B37000A3EAF0A3E901B412900008C7E020E603B5
:10B3800001B41C900038F4E0FE75F01EA42420F5F2
:10B3900082E5F03418F583759300E0FF75F01EEE3A
:10B3A000A4241FF582E5F03418F583759300E07549
:10B3B000F00AA42481F582E43417F583759300E044
:10B3C000FBA3E0FAA3E0F5828A838B937DF1120060
:10B3D000746E900038F9E0FBA3E0FAA3E0F9900066
:10B3E00038F4E0FF75F01EA42432F582E5F034183D
:10B3F000F583759300EBF0A3EAF0A3E9F075F01E76
:10B40000EFA4242EF582E5F03418F583759300E45B
:10B41000F0A3F0900038F7E004F0804D900038F78A
:10B42000E0900038F9B4011BE0FBA3E0FAA3E0F9D7
:10B43000900038F4E075F01EA42432F582E5F03473
:10B44000188019E0FBA3E0FAA3E0F9900038F4E0DB
:10B4500075F01EA42435F582E5F03418F583759354
:10B4600000EBF0A3EAF0A3E9F0900002D9E0FEA31C
:10B47000E08E837593002412F582E43583F583759D
:10B480009300E0FEA3E0FF900008C7E030E62790BD
:10B490000038F5E4F0A304F0900038F4E075F01EF5
:10B4A000A4242CF582E5F03418F583759300E4F0BC
:10B4B000A304F001B5E6D3900038F6E09F90003881
:10B4C000F5E09E404EEF9404FFEE9400F0A3EFF001
:10B4D000A3E0900038F5B40118E0FEA3E0FF90006F
:10B4E00038F4E075F01EA4242CF582E5F0341880C1
:10B4F00016E0FEA3E0FF900038F4E075F01EA424EF
:10B500002EF582E5F03418F583759300EEF0A3EF85
:10B51000F0805C900038F7E0FD6401705A90000202
:10B52000D9E0FEA3E08E837593002404F582E43510
:10B5300083F583759300E0FEA3E064504E7038906D
:10B540000038F5E0C313FEA3E013FF900038F5EEDA
:10B55000F0A3EFF0900038F4E075F01EA4242CF571
:10B5600082E5F03418F583759300EEF0A3EFF0E474
:10B57000900008C7F0806FED900038F5B40139E015
:10B58000FEA3E0FF900038F4E0FD75F01EA4242C2B
:10B59000F582E5F03418F583759300EEF0A3EFF033
:10B5A00075F01EEDA4242EF582E5F03418F58375B0
:10B5B0009300E4F0A3F08020E0FEA3E0FF900038C9
:10B5C000F4E075F01EA4242EF582E5F03418F5831E
:10B5D000759300EEF0A3EFF0900038F7E004F090E0
:10B5E0000008C77401F0900038F4E075F01EA42440
:10B5F00030F582E5F03418F583C083C0827593007E
:10B60000E0FEA3E0FF900038F5E0FCA3E0FDC3EF0F
:10B610009DFFEE9C759300D082D083F0A3EFF09055
:10B620000038F9E0FBA3E0FAA3E02DF9EA3CFA9038
:10B630000038F4E0FF75F01EA42438F582E5F034FC
:10B6400018F583759300EBF0A3EAF0A3E9F075F029
:10B650001EEFA42438F582E5F03418F583759300C5
:10B66000E0FBA3E0FAA3E0F9C003C002C001900030
:10B6700038F9A3E0FAA3E0F9D3D082D083D0E0E98F
:10B680009582EA95834015EF75F01EA42438F9746D
:10B690001835F0FA7B0174011200712B900038F913
:10B6A000E0F9A3E0FAA3E090000091C9F0A3EAF06A
:10B6B000A3E9F0900038F5E0FEA3E0FF7884A60649
:10B6C00008A607900038F8E0B40108900008C7E029
:10B6D0004404F0900038F7E06401600301B7AF78EC
:10B6E0007476017F041200917B90001733E0600BA9
:10B6F0009000177CE0700412011CDD90001B60E0DC
:10B70000FBA3E0FAA3E0F5828A838B93E4FFFE12A9
:10B7100000746E900002DAE0240CFF900002D9E081
:10B720003400FAA9077B01900038F5E0FCA3E0FDA6
:10B73000120177399000009FE0FF900002D9E0FCF1
:10B74000A3E0FD8C83759300240CF582E43583F52A
:10B7500083759300EFF0900000A0E0FF8D828C8352
:10B76000759300E582240DF582E43583F5837593A6
:10B7700000EFF0900000A1E0FF8D828C83759300B4
:10B78000E582240EF582E43583F583759300EFF0AE
:10B79000900000A2E0FF8D828C83759300E58224E7
:10B7A0000FF582E43583F583759300EFF0803B90CD
:10B7B000001B63E07034787476017F041200917B83
:10B7C00090001733E0600B9000177CE070041201CA
:10B7D0001CDD90001B60E0FBA3E0FAA3E0F5828A89
:10B7E000838B93E4FFFE1200746E900038F4E075D2
:10B7F000F01EA42430F582E5F03418F5837593002B
:10B80000E0FFA3E0900038F5CFF0A3EFF001B1D84E
:10B810002290001B637401F0E49000172BF090005D
:10B820001728F090001728E0FFC39410504D75F0D2
:10B830001EEFA4241EF582E5F03418F583759300FD
:10B84000E0D39400402C90001728E075F01EA4244B
:10B850002AF582E5F03418F583759300E0FEA3E045
:10B86000FF900002D9E0FCA3E0FDEF6D7002EE6CEA
:10B87000600990001728E004F080A890001728E0E5
:10B880006410600301BAEC7874E620E60301BAE5BF
:10B89000E4A3F090001729E0FFC3940C400301BA21
:10B8A000DBEF75F003A42434F582E43417F58375D7
:10B8B0009300E0FEA3E0FF4E700301BAD1900002B6
:10B8C000D9E0FCA3E08C837593002404F582E43571
:10B8D00083F583759300E0FCA3E06F7002EC6E606B
:10B8E0000301BAD190001729E075F003A42436F5BE
:10B8F00082E43417F583759300E075F00AA4247E82
:10B90000F582E43417F583759300E0FBA3E0FAA316
:10B91000E04A4B70077874762001BDC9E4900017A7
:10B920002AF09000172AE0FFC39410501E75F01EF5
:10B93000EFA4241EF582E5F03418F583759300E03A
:10B9400060099000172AE004F080D79000172AE0E1
:10B95000B4100878747620E401BDC9900002D9E0E3
:10B96000FEA3E0F5828E83759300E0FEA3E0FFE482
:10B97000FCFD78101200738BA804A905AA06AB077A
:10B98000900002D9E0FEA3E0F5828E83759300A3B8
:10B99000A3E0FEA3E0FFE4FCFDEB2FFFEA3EFEED9B
:10B9A00039FDEC38FC9000172AE0F975F01EA4244C
:10B9B00022F582E5F03418F5837593001200740BBC
:10B9C000900002D9E0FCA3E0FD75F01EE9A4242A52
:10B9D000F582E5F03418F583759300ECF0A3EDF0F3
:10B9E00075F01EE9A42422F582E5F0341875930061
:10B9F000AF82FE8D828C83759300E5822406F582EA
:10BA0000E43583F583759300E0FCA3E0FDAB01C052
:10BA10000390001729E075F003A42436F582E4347E
:10BA200017F583759300E075F00AA4247EF582E48F
:10BA30003417F583759300E0FBA3E0FAA3E0F582E9
:10BA40008A838B93D0031200746E9000172AE0FE55
:10BA500075F01EA42420F582E5F03418F583759363
:10BA600000EFF0BFFF02807D9000172AE0FF9000FA
:10BA700002D9E0FCA3E08C837593002422F582E4D4
:10BA80003583F583759300EFF075F01EEFA4241E47
:10BA9000F582E5F03418F5837593007402F0900098
:10BAA0001729E075F003A42436F582E43417F583F2
:10BAB000759300E0FF75F01EEEA4241FF582E5F0FB
:10BAC0003418F583759300EFF090001728EEF0809E
:10BAD0000A90001729E004F001B89390001729E0BC
