:020000040000FA
:04003B00020030008F
:0D300000C0E0439A80E59A20E0FBD0E0326A
:10602000028EFBE94A4B70012212007557FF6D701A
:106030000122EF7004FBFAF92209E970EC0A80E909
:10604000D2E822020148BC3098FDAF99C2987E0088
:1060500022002202014358286E756C6C2900000052
:1060600000000000000000000000220201910B432C
:106070008F0222020198E60201A7250201AE623ECC
:106080003E2000456E7465722050617373776F72A5
:10609000642000202121554E53454355524521216E
:1060A00020002000736574207375622D6D656E7518
:1060B00000636F6D6D616E640073686F72746375F9
:1060C0007400636F6D6D616E642066756E637469D4
:1060D0006F6E616C206465736372697074696F6E52
:1060E000006D61736B0072656164206F722073656F
:1060F0007420746865204950207375626E65742041
:106100006D61736B006465766963655F73697000C8
:10611000647369700072656164206F7220736574C6
:10612000207468652064657669636520736572769E
:106130006572204950206164647265737300646500
:10614000766963655F7365727665725F706F72748E
:10615000006473700072656164206F7220736574EF
:10616000207468652064657669636520736572765E
:10617000657220706F7274206E756D626572006456
:1061800065766963655F756E69636173745F706F6F
:106190007274006475700072656164206F722073A0
:1061A0006574207468652064657669636520636C36
:1061B00069656E7420706F7274206E756D626572A1
:1061C000006465766963655F62726F6164636173C1
:1061D000745F706F727400646270006465766963E6
:1061E000655F636970006463697000726561642053
:1061F0006F722073657420746865206465766963C6
:106200006520636C69656E74204950206164647216
:10621000657373006465766963655F636C69656E59
:10622000745F706F72740064637000686F73745F82
:1062300063697000686369700072656164206F72E1
:10624000207365742074686520686F737420636CB4
:1062500069656E74204950206164647265737300CF
:10626000686F73745F636C69656E745F706F72746E
:10627000006863700072656164206F7220736574DA
:106280002074686520686F737420636C69656E7430
:1062900020706F7274206E756D62657200686F7326
:1062A000745F73697000687369700072656164205F
:1062B0006F72207365742074686520686F73742032
:1062C00073657276657220495020616464726573EB
:1062D0007300686F73745F7365727665725F706F59
:1062E0007274006873700072656164206F7220734D
:1062F00065742074686520686F73742073657276A6
:10630000657220706F7274206E756D6265720064C4
:106310006561646D616E5F636F756E745F726573E6
:10632000657400646D63007475726E2064656164E9
:106330006D616E20636F756E746572207265736532
:1063400074206F6E2F6F666600646863705F636CA5
:1063500069656E7400646863700072656164206FC3
:10636000722073657420746865204448435020632C
:106370006C69656E742073746174650068656C7017
:10638000003F00646973706C61792068656C7020EF
:106390006D6573736167657320666F72206D656EDE
:1063A0007573007365745F64656661756C74730002
:1063B000736400736176652074686520637572721A
:1063C000656E74206463622073657474696E6773AC
:1063D000206173207468652064656661756C742043
:1063E000646362006669726D776172655F7570647F
:1063F0006174650066777500757064617465206608
:1064000069726D776172650066696C6C0066696CB3
:106410006C206D656D6F7279206265747765656E4D
:106420002074776F2061646472657373657320777D
:1064300069746820646174610072657365740072C8
:1064400073740052657365742064657669636520B2
:1064500073657474696E677320746F206465666118
:10646000756C74730072657365745F656570726FC7
:106470006D0072656D005265736574206570726F92
:106480006D20746F20746865206F656D207365746E
:1064900074696E6773007265626F6F740072620078
:1064A0005265626F6F7420746865206465766963F5
:1064B0006520776974686F7574206368616E6769B9
:1064C0006E672073657474696E67730063686563D3
:1064D0006B73756D00637300726563616C63756CDB
:1064E0006174652074686520646362206368656315
:1064F0006B73756D20616E64207361766520746FB7
:106500002064636200636F6E6669677572617469A7
:106510006F6E5F6C656E67746800636C00636861C2
:106520006E676520746865206C656E677468206F9F
:1065300066207468652064636220286D617820009D
:106540006E616D650072656164206F7220736574A1
:106550002074686520646576696365206E616D6589
:10656000006D61630072656164206F7220736574F1
:1065700020746865204D41432061646472657373C3
:10658000007472616E736D69745F6D6F6465007421
:10659000786D00736574207468652064657669633E
:1065A0006520746F20686F73742064617461207457
:1065B00072616E736D6974206D6574686F640072CA
:1065C00065706F72745F6D6574686F640069726D79
:1065D000007365742074686520646576696365205E
:1065E0007573657220696E707574207265706F7254
:1065F00074696E67206D6574686F640064656275A8
:10660000675F6D6F646500646267007475726E2009
:106610006465627567206D6F646564206F6E2F6FAF
:1066200066660073686F775F6465766963655F634C
:106630006F6E666967006463620073686F772074C9
:1066400068652064657669636520636F6E66696757
:1066500075726174696F6E20626C6F636B00757325
:1066600065725F646174616772616D5F70726F748F
:106670006F00756470007472616E735F636F6E7427
:10668000726F6C5F70726F746F007463700062720F
:106690006F61646361737400626363006D6573733B
:1066A0006167655F6672616D6573006D66006F7529
:1066B00074707574207468652064617461206172FF
:1066C0007261797320686F6C64696E6720746865A5
:1066D00020686F7374206461746100657261736512
:1066E00000657273006572617365206D656D6F7210
:1066F0007920636F6E74656E74732C2073657420DB
:10670000746F20307846460070617373776F7264DF
:1067100000656E7465722070617373776F726420A8
:10672000746F20726561636820657874656E646556
:10673000642066756E6374696F6E006578697400B5
:106740007878006578697420756E73656375726515
:10675000206D6F6465007570646174650075750007
:10676000726561640072640072656164204932433D
:1067700020454550524F4D206D656D6F7279007701
:10678000726974650077720077726974652064615C
:10679000746120746F207468652049324320454538
:1067A00050524F4D00416D626967756F757320637C
:1067B0006F6D6D616E643A202573200A0D00556E71
:1067C0006B6E6F776E20636F6D6D616E643A20251E
:1067D000730A0D000A53494D54454B20494E432E30
:1067E0002064657669636520636F6E66696775729C
:1067F0006174696F6E206D656E7520282573202584
:1068000073290A0D0A0D20200030312F32332F3129
:10681000390031363A30343A303800202800292007
:1068200020202020202020202020202000000025C3
:10683000730A0D202D2D2D2D2D2D2D2D2D2D2D2D92
:106840002D2D2D2D2D2D2D2D2D2D2D2D2D2D2D2D78
:106850002020202D2D2D2D2D2D2D2D2D2D2D2D2D8F
:106860002D2D2D2D2D2D2D2D2D2D2D2D2D2D2D2D58
:106870002D2D2D2D2D2D2D2D2D2D2D2D2D2D0A0D8B
:106880000029002020252D323773202D2025730A62
:106890000D000A0D00556E6B6E6F776E2068656C8B
:1068A0007020706172616D657465722025730A0DC8
:1068B000005573616765203A2072656164203C640D
:1068C000657669636520616464726573733E203C1C
:1068D0006D656D6F727920616464726573733E20BB
:1068E0003C6D656D6F7279206C656E6774683E0AE9
:1068F0000D00446576696365206164647265737335
:10690000206572726F722E0A0D0025730A0054689A
:10691000652064657669636520616464726573737C
:10692000206973206F7574206F662072616E6765D1
:106930002E0A0D004E6F206D656D6F7279206164B7
:106940006472657373207370656369666965640A50
:106950000D004D656D6F72792061646472657373AB
:10696000206572726F722E0A0D00546865206D6585
:106970006D6F72792061646472657373206973202E
:106980006F7574206F662072616E67652E0A0D0048
:106990004E6F2072656164206C656E677468207349
:1069A00070656369666965640A0D004D656D6F7297
:1069B00079206C656E677468206572726F722E0A3A
:1069C0000D006C656E677468203D20256C750A0D9E
:1069D00000546865206C656E677468206973206F69
:1069E0007574206F662072616E67652E0A0D002037
:1069F0004164647265737320202020303020303170
:106A000020303220303320303420303520303620D2
:106A1000303720303820303920304120304220308B
:106A2000432030442030452030460A0D00202020ED
:106A30002020202020207C2D2D2D2D2D2D2D2D2D85
:106A40002D2D2D2D2D2D2D2D2D2D2D2D2D2D2D2D76
:106A50002D2D2D2D2D2D2D2D2D2D2D2D2D2D2D2D66
:106A60002D2D2D2D2D2D2D2D2D0A0D002041646451
:106A70007265737320202020002530326278200058
:106A80002020202020202020207C2D2D002D2D2D89
:106A900000203078253034647820207C202000527B
:106AA000656164204572726F722E0A0055736167CA
:106AB00065203A20707772203C64657669636520B2
:106AC000616464726573733E203C6D656D6F7279AD
:106AD00020616464726573733E203C6D656D6F72F6
:106AE0007920646174613E0A0D004E6F206D656D02
:106AF0006F7279206461746120737065636966697F
:106B000065640A0D004D656D6F7279206461746172
:106B1000206572726F722E0A0D00546865206461E0
:106B20007461206973206F7574206F662072616EC6
:106B300067652E0A0D00577269746520416464729E
:106B4000657373203A20256C780A0D0057726974BA
:106B5000652044617461203A200057726974652091
:106B60004572726F72005573616765202020202086
:106B700020202020203A0A0D007772697465207465
:106B80006F2070726F6D20203A202573203C737443
:106B90006172745F616464723E203C656E645F6123
:106BA0006464723E203C646174613E0062616420F2
:106BB000617267756D656E7420310A0D00626164E3
:106BC00020617267756D656E7420320A0D00626116
:106BD0006420617267756D656E7420330A0D006301
:106BE0006861726163746572203A20253032627880
:106BF0000A0D00737461727420202020203A202531
:106C0000303262780A0D00656E642020202020203A
:106C1000203A2025303264780A0D006C656E677466
:106C200068202020203A202564750A0D0072616ECC
:106C30006765206572726F720A0D00756E61626C15
:106C40006520746F20616C6C6F6361746520726580
:106C5000717569726564206D656D6F7279207369F5
:106C60007A65006C656E202020202020203A2025A7
:106C700064640A0D2573000A0D2573000D00256359
:106C800000082008004E6F206D6F726520726F6FD4
:106C90006D20666F72206D656E7520616464696E2B
:106CA000670A0053797374656D206572726F722C78
:106CB0002066756E6374696F6E203C5554494C5F55
:106CC00053746F6F6765733E2073686F756C6420D3
:106CD0006E6F742062652063616C6C65640A0025C8
:106CE0002D3234733A00202530326278000A0D25A7
:106CF0002D3234733A0000636865636B73756D20E1
:106D0000757064617465640A0D00444342204C65EB
:106D10006E67746800303132333435363738392095
:106D2000000A0D496E76616C696420636861726166
:106D30006374657220696E204950206164647265D5
:106D400073732E205468652076616C6964206368D3
:106D500061726163746572207365742069732027A2
:106D600030313233343536373839202E270A0D008A
:106D70000A0D496E76616C696420636861726163B3
:106D800074657220696E20706F7274206E756D620A
:106D900065720A0D005468652076616C6964206331
:106DA0006861726163746572207365742069732011
:106DB000273031323334353637383920270A0D0041
:106DC0006D6163203A200052656164204572726FE4
:106DD000722E00726561642066726F6D2070726F32
:106DE0006D203A206D61630A0D0077726974652029
:106DF000746F2070726F6D20203A206D6163203CAB
:106E00006F63746574313E203C6F63746574323E09
:106E1000203C6F63746574333E203C6F637465740B
:106E2000343E203C6F63746574353E203C6F637460
:106E30006574363E00526561642D4261636B204586
:106E400072726F7200496E636F6D706C657465204D
:106E50004D414320616464726573733F0A0D0055B0
:106E600073616765203A206D6163203C6F637465D0
:106E700074313E203C6F63746574323E203C6F6316
:106E8000746574333E203C6F63746574343E203CFB
:106E90006F63746574353E203C6F63746574363E71
:106EA000002573203A202573202825303464782962
:106EB00000726561642066726F6D2070726F6D2064
:106EC0003A2025730A0D00777269746520746F206B
:106ED00070726F6D20203A202573203C25732F257A
:106EE000733E0052656164204572726F72004448BF
:106EF000435020436C69656E740064697361626C11
:106F00006500656E61626C65005544502050726F7B
:106F1000746F636F6C006F6666006F6E0054435051
:106F20002050726F746F636F6C0055445020427232
:106F30006F6461636173747320526563696576651C
:106F400064005472616E736D6974204D6F646500E6
:106F500073657276657200636C69656E7400526564
:106F6000706F7274204D6574686F6400706F6C6C24
:106F70006564007265616C74696D65004465627575
:106F800067204D6F646500446561646D616E2043E8
:106F90006F756E74657200252D3234733A2000646B
:106FA0006576696365206E616D65002573004F70BD
:106FB00074696F6E73004669726D77617265004423
:106FC0006973706C617900496E64696361746F7292
:106FD0000044696D6D696E67005374617475730068
:106FE000656570726F6D00454550524F4D200A0D1A
:106FF00000636F6E66696700636F6E6669677572BE
:107000006174696F6E20646174610A0D0072756E3F
:1070100074696D650052554E54494D45200A0D0066
:10702000616C6C00414C4C200A0D0021616C6C209D
:107030006661696C210A0D005573616765203A0A23
:107040000D006572617365203A202573203C25731D
:107050002F25732F25732F25733E0A0D00696E7639
:10706000616C6964207661726961626C65203A20A6
:1070700025730A0D0072642030203020313030003A
:10708000006E616D65203A20257300726561642091
:1070900066726F6D2070726F6D203A206E616D6543
:1070A0000A0D00777269746520746F2070726F6DBD
:1070B00020203A206E616D65203C63686172313E2C
:1070C000202E2E2E203C6368617231353E0A0D0061
:1070D0002573203A202569700077726974652074E1
:1070E0006F2070726F6D20203A202573203C6F63F3
:1070F000746574313E2E3C6F63746574323E2E3C71
:107100006F63746574333E2E3C6F63746574343EF4
:1071100000496E636F6D706C6574652049507634FC
:1071200020616464726573733F0A0D005573616773
:1071300065203A20686F73745F6970203C6F6374D8
:107140006574313E2E3C6F63746574323E2E3C6F25
:1071500063746574333E2E3C6F63746574343E0013
:10716000446576696365205365727665722049507F
:107170000044657669636520436C69656E742049D7
:107180005000486F737420436C69656E74204950D9
:1071900000486F7374205365727665722049500001
:1071A0005375626E6574204D61736B002573203AD0
:1071B000200025647500777269746520746F2070F3
:1071C000726F6D20203A202573203C776F72643EE9
:1071D00000496E76616C69642063686172616374F2
:1071E000657220696E20706F7274206E756D6265B5
:1071F000723F0A0D005573616765203A20257320A0
:107200003C776F72643E0044657669636520536520
:107210007276657220506F7274004465766963659A
:1072200020436C69656E7420506F727400446576FB
:1072300069636520556E696361737420506F727461
:10724000004465766963652042726F6164636173AF
:107250007420506F727400486F7374205365727697
:10726000657220506F727400486F737420436C69AC
:10727000656E7420506F72740064656661756C741D
:1072800073207570646174656420737563657373CE
:1072900066756C6C790044656661756C7420444356
:1072A00042205772697465204572726F72004443C0
:1072B000422052656164204572726F72005265739C
:1072C0006574207468652064657669636520746FF1
:1072D000207468652064656661756C7420736574DC
:1072E00074696E67730A0D005265626F6F74207463
:1072F00068652064657669636520776974686F7571
:107300007420736176696E67206368616E67657368
:107310000A0D00252D3234733A202564780A0D00B9
:10732000436865636B53756D00252D3234733A20C5
:107330002564750A0D004366674C656E67746800C6
:10734000252D3234733A2025730A0D004465766981
:107350006365204E616D65004D414300252D32343B
:10736000733A202569700A0D00446576536572767C
:107370006572497041646472002020506F727420FD
:107380002D20536572766572002020506F72742034
:107390002D20556E6963617374002020506F7274E4
:1073A000202D2042726F61646361737400446576BE
:1073B000436C69656E7449704164647200202050AA
:1073C0006F7274202D20436C69656E7400486F7372
:1073D0007453657276657249504164647200486FF7
:1073E0007374436C69656E744950416464720052F1
:1073F000756E74696D65466C616773004E65747770
:107400006F726B004F7074696F6E004574686572BF
:107410006E6574547854696D657200257325730028
:107420006D617463680A0D006E6F206D617463682E
:107430000A0D0021BC0000300000B068C25000F20C
:107440000510E01D198700FFFFFFFF10070CA8C003
:1074500000FFFFFF04FFFFFFFFFFFFFFFFFFFFFF36
:10746000FFFFFF03F4004A31302D383536362D301A
:10747000312023313031000050C268B129C0A80C3E
:1074800001C0A80C02C0A80C04C0A80C03FFFFFF99
:10749000000000000000000000C74C62246222C708
:1074A0004EC74FC74D00000049000000EB7008E7D1
:1074B00009F608DFFA801B89828A831410E70AF52F
:1074C00093E0A3F608DFFA8009F593E493A3F608A6
:1074D000DFF9ECFAA9F0EDFB2288F0EF60010E4E27
:1074E00060F088F0ED60C51410E7E7CB700E88827D
:1074F0008C838B93E709F0A3DFFA80D61410E72A78
:1075000089828A83F593ECFAE0A3C8C582C8CCC50A
:1075100083CCCBC593CBF0A3C8C582C8CCC583CCE4
:10752000CBC593CBDFE2DEE080AA89828A83F59324
:10753000ECFAE493A3C8C582C8CCC583CCCBC59371
:10754000CBF0A3C8C582C8CCC583CCCBC593CBDF59
:10755000E1DEDF020074D4EB7002E72289828A83C5
:107560001410E704F593E022F593E49322F8EB700E
:1075700006E7C828F3E82289828A831410E708F511
:1075800093E0C828F0E822F593E49322BB00032798
:10759000F722F8EB89828A831410E706F593E02836
:1075A000F022F593E4932822BB0002F722BB80006F
:1075B000500989828A838B931593F022EF8DF0A472
:1075C000A8F0CF8CF0A428CE8DF0A42EFE22C5F01A
:1075D000F8A3E028F0C5F0F8E58215827002158363
:1075E000E038F022A3F8E0C5F025F0F0E58215823E
:1075F00070021583E0C838F0E822EB7007E7F5F079
:1076000009E7192289828A831410E708F593E0F5C7
:10761000F0A3E022F593E493F5F074019322BB000C
:107620000B09C5F027F7C5F01937F722F8EB898267
:107630008A831410E707F593E8020075CEF593747A
:10764000019325F0F5F0E4933822BB0006F709A773
:10765000F01922BB8000500D89828A838B93159389
:10766000F0E5F0A3F022E88FF0A4CC8BF0A42CFC82
:10767000E98EF0A42CFC8AF0EDA42CFCEA8EF0A498
:10768000CDA8F08BF0A42DCC3825F0FDE98FF0A427
:107690002CCD35F0FCEB8EF0A4FEA9F0EB8FF0A41E
:1076A000CFC5F02ECD39FEE43CFCEAA42DCE35F05A
:1076B000FDE43CFC2275F008758200EF2FFFEE33ED
:1076C000FECD33CDCC33CCC58233C5829BED9AEC55
:1076D00099E58298400CF582EE9BFEED9AFDEC99BF
:1076E000FC0FD5F0D6E4CEFBE4CDFAE4CCF9A882C9
:1076F00022B800C1B90059BA002DEC8BF084CFCE6E
:10770000CDFCE5F0CBF97818EF2FFFEE33FEED332B
:10771000FDEC33FCEB33FB10D703994004EB99FBF2
:107720000FD8E5E4F9FA227818EF2FFFEE33FEEDDB
:1077300033FDEC33FCC933C910D7059BE99A4007E8
:10774000EC9BFCE99AF90FD8E0E4C9FAE4CCFB22FF
:1077500075F010EF2FFFEE33FEED33FDCC33CCC8C8
:1077600033C810D7079BEC9AE899400AED9BFDECD3
:107770009AFCE899F80FD5F0DAE4CDFBE4CCFAE412
:10778000C8F922CFF4CFCEF4CECDF4CDCCF4CC22B8
:10779000C3E49FFFE49EFEE49DFDE49CFC22EB9F7E
:1077A000F5F0EA9E42F0E99D42F0EC6480C8648006
:1077B0009845F022EB9FF5F0EA9E42F0E99D42F0F9
:1077C000E89C45F022E8600FECC313FCED13FDEEDE
:1077D00013FEEF13FFD8F122E86010ECA2E713FCD0
:1077E000ED13FDEE13FEEF13FFD8F022E8600FEF6C
:1077F000C333FFEE33FEED33FDEC33FCD8F122EB67
:107800007006E9F802007C9189828A831410E706E9
:10781000F59302007C9DF59302007CA9BB0006E96C
:10782000F802007CB9BB8000500C89828A838B935C
:1078300015930200786C227401FF3395E0FEFDFC85
:10784000A3A3A3E0CF2FF0E582158270021583E099
:10785000CE3EF0E582158270021583E0CD3DF0E565
:1078600082158270021583E0CC3CF022ECF0A3ED8F
:10787000F0A3EEF0A3EFF022A42582F582E5F03527
:1078800083F58322EB7006E9F802007CC589828AC1
:10789000831410E706F59302007CCEF59302007C7A
:1078A000F7D093D083D082F8E49370127401937070
:1078B0000DA3A393F8740193F5828883E473740293
:1078C000936860EFA3A3A380DF8B938A83898215DB
:1078D0009353937FE473759300E50E2582F582E55B
:1078E0000D3583F583B50D0485820E2210AF068514
:1078F000820EF50D2285820EF50DD2AF2275930012
:10790000E50E2582F582E50D3583F58322EB7008BF
:10791000E709F60870FA801B89828A831410E70A47
:10792000F593E0A3F60870FA8009F593E493A3F6C3
:107930000870F9ECFAA9F0EDFB2288F0ED60CE14A6
:1079400010E7F0CB700E88828C83F593E709F0A3E3
:1079500070FA80DF1410E72889828A83F593ECFAA5
:10796000E0A3C8C582C8CCC583CCCBC593CBF0A35C
:10797000C8C582C8CCC583CCCBC593CB70E280B5DB
:1079800089828A83F593ECFAE493A3C8C582C8CCB4
:10799000C583CCCBC593CBF0A3C8C582C8CCC58367
:1079A000CCCBC593CB70E1808CEB700C87F009E6F3
:1079B00008B5F019DFF6801589828A831410E71163
:1079C000F593E0F5F0A3E608B5F002DFF502007AE2
:1079D0005AF593E493F5F0A3E608B5F07DDFF48063
:1079E00079CB701388828C838B9387F009E493A3FF
:1079F000B5F067DFF580631410E73089828A83F57C
:107A000093ECFAE0F5F0A3C8C582C8CCC583CCCB13
:107A1000C593CBE493A3C8C582C8CCC583CCCBC5E2
:107A200093CBB5F035DFDCDEDA802F89828A83F5EF
:107A300093ECFAE493F5F0A3C8C582C8CCC583CC17
:107A4000CBC593CBE493A3C8C582C8CCC583CCCBAC
:107A5000C593CBB5F004DFDBDED97FFFB5F0020FB5
:107A60002240027F0122020079A9020079E188F018
:107A7000EF60010E4E60EEED60EC1410E7ECCB70A1
:107A80001288828C83F59387F009E0A3B5F0CBDFF1
:107A9000F680C71410E72F89828A83F593ECFAE009
:107AA000F5F0A3C8C582C8CCC583CCCBC593CBE0C9
:107AB000A3C8C582C8CCC583CCCBC593CBB5F09A3F
:107AC000DFDDDEDB809489828A83F593ECFAE49330
:107AD000F5F0A3C8C582C8CCC583CCCBC593CBE099
:107AE000A3C8C582C8CCC583CCCBC593CBB5F004A5
:107AF000DFDCDEDA02007A5AEF60010E4E6027EB1F
:107B00007009E76D602409DFF9801B89828A83147C
:107B100010E718F593E06D7008AB930BAA83A98268
:107B200022A3DFF1DEEFE4F9FAFB22F593E4936D93
:107B30007007E5932481FB80E3A3DFF1DEEF80E6AD
:107B4000EF4E6022EF60010EEDBB0007F709DFFC8E
:107B5000A9F022BB8000500E89828A838B931593F3
:107B6000F0A3DFFCDEFA22EB701BE9D398500EE99C
:107B70002FF9E82FF819E718F6DFFA8025E709F65C
:107B800008DFFA801D89828A831410E70AF593E0E2
:107B9000A3F608DFFA800B89828A83E493A3F608B0
:107BA000DFF9ECFAA9F0EDFB2288F08E83EF60019B
:107BB0000E4E60EE88F0ED60AE1410E7E5CB700E6F
:107BC00088828C838B93E709F0A3DFFA80D41410AA
:107BD000E766F593D3E998EA9CE5939B505CE82F20
:107BE000F8EC3583FCE43BFBE92FF582EA3583F5BD
:107BF00083E43593F5930582D582090583D5830205
:107C0000159315831582E0C8C582C8CCC583CCCB3B
:107C1000C593CB0582D582090583D58302159315BB
:107C2000831582F0C8C582C8CCC583CCCBC593CBA5
:107C3000DFC4DEC202007BA4802A89828A83ECFA38
:107C4000E0A3C8C582C8CCC583CCCBC593CBF0A379
:107C5000C8C582C8CCC583CCCBC593CBDFE2DEE000
:107C600002007BA489828A83F593ECFAE493A3C88B
:107C7000C582C8CCC583CCCBC593CBF0A3C8C58285
:107C8000C8CCC583CCCBC593CBDFE1DEDF02007B64
:107C9000A4E6FC08E6FD08E6FE08E6FF22E0FCA3F9
:107CA000E0FDA3E0FEA3E0FF22E493FC740193FD5A
:107CB000740293FE740393FF22ECF608EDF608EECF
:107CC000F608EFF622E6FB08E6FA08E6F922E0FB02
:107CD000A3E0FAA3E0F922F8E0FBA3A3E0F925F082
:107CE000F0E582158270021583E0FA38F022EBF09D
:107CF000A3EAF0A3E9F022E493FB740193FA74027F
:107D000093F922BB001CD093D0F0D0E0F8D0E0C9AA
:107D1000FBD0E0FAD0E0CBC8C0E0C0F0C0930200D6
:107D20007D57BB80005022D093D0F0D0E0F8D0E057
:107D3000C9F582D0E0CAF583D0E0CB14C8C0E0C05A
:107D4000F0C093889302007CEED093D083D082D091
:107D5000E0D0E0D0E0E473EBF608EAF608E9F622BA
:107D6000412D7500412BD900412BD600412BD70066
:107D7000412BDA00412BD500412BD800422A690063
:107D800000422A640000412A6B00412D8100422CF0
:107D9000E10000442C9000000000422C96000141BC
:107DA0002C9519412C9401421FF30000422003003E
:107DB000004220010000411FF700421FEF00004277
:107DC0001FF9000041220900421FFB0000421FF57D
:107DD000000042200700004220050000411FF8007B
:107DE000421FF10000421FFD000041220A00421F15
:107DF000FF0000420F0E0000420FAB00004213C311
:107E0000000060290FB250305F302C50305F312CB1
:107E100050305F322C50305F332C50305F342C5058
:107E2000305F352C50305F362C50305F372C00607F
:107E3000290FDD50315F302C50315F312C50315FD4
:107E4000322C50315F332C50315F342C50315F3540
:107E50002C50315F362C50315F372C0060291006D2
:107E600050325F302C50325F312C50325F322C5008
:107E7000325F332C50325F342C50325F352C50320D
:107E80005F362C50325F372C00602A102F50335F42
:107E9000302C50335F312C50335F322C50335F33F2
:107EA0002C50335F342C50335F352C50335F362CDD
:107EB00050335F372C000041105C00421174000009
:107EC000421176000042117F000042118100004201
:107ED00013C10000420FAD000041180800411420FA
:107EE00000411809004113D700411807004114C18F
:107EF0000046242D00123456789A46249300000040
:107F000000000041248B004302D60102DB4300A3A2
:107F10000102DB4300940102DB48254F41534958DD
:107F200058495341430E940108CE4C1B2753696DA9
:107F300074656B6B65746D6953412D8C01411FEA4B
:107F400000421FBA0000411FBC00441FEB000000AC
:107F500000461FE4000000000000412A2300412ADF
:107F60002401412A1E00422A1C0000442A18000055
:107F70000003442A1F00000000411B170A43180A8F
:107F800081607F431B1D816083431B1A8160934383
:107F90001A90000000421B18000041180D00441AFE
:107FA000930000000061EC18A48160A20000008230
:107FB000B2BA8160A48160B18160B90000008160C3
:107FC000C28160E100000082ADF78160E681610559
:107FD00081611082AD6381611581613E8161518251
:107FE000ABBF81615581617F81619382AC0D8161FD
:107FF000978161C18161D782AC348161978161DBF6
:108000008161E682AD888161EB81621481622782A1
:10801000ABE681619781622B81623482ADAD816272
:108020003981626081627182AC8281627581629DF8
:108030008162A682ADD28162AB8162D28162E3822B
:10804000AC5B8162E781630F81632382A806816351
:1080500027816349816355829EB581635A81637C20
:108060008163818255F28163838163A38163B082DE
:1080700070BA8163B38163E48163F482AE1C81636F
:10808000F881640800000082092C81640D81643944
:1080900081643F82B0FF8164438164658164728240
:1080A000A27181647681649681649D82B114816439
:1080B000A08164CC8164D58291DD8164D88165051D
:1080C00081651A82AB9881651D8165400000008240
:1080D0006398816545816561000000822692816513
:1080E0006581658181658F829D5B8165938165BFB7
:1080F0008165CD829C868165D18165FC8166078220
:10810000A7D981660B81662381663681EBC38166C0
:108110003A81665E81667282A75281635A81667671
:1081200081668A82A77F81635A81668E8166988282
:10813000A7AC81635A81669C8166AB82570E8166CB
:10814000AE8166DB8166E1824C998166E5816708D4
:1081500000000082A98A81671181673B81674082A4
:10816000B1EE81674381675681675D82AE1C816392
:10817000F881676081676581D7FA81676881677F69
:1081800081678581E39A8167880000000000000014
:108190000000000000422D73600000482BA3000087
:1081A000000000000000E50824D2F582E43427F541
:1081B00083759300E0050822900027CF30370490A4
:1081C0000027D2E475F00112007CD7020075572019
:1081D00030E57F2ED2308018EF540F2490D43440F5
:1081E000D4FF30340BEF24BFB41A0050032461FFD6
:1081F000E50960021509050CE50C7002050B303726
:1082000011900027CFE475F00112007CD7EF020037
:1082100075A8020090F97403D2378003E4C237F5E1
:1082200008900027CF12007CEEE4F509F50BF50C61
:10823000E50960087F20120081F080F4750AFFC212
:1082400031C230C232C233C235C236C238120081A6
:10825000B8FF700E3037067F0012008201AF0CAEFF
:108260000B22B42563C2D5C234120081B8FF24D0DA
:10827000B40A00501A75F00A780930D50508B6FF1F
:108280000106C6A426F620D5047002D23380D82475
:10829000CFB41A00EF5004C2E5D2340200842ED2CB
:1082A0003180C4D23080BED23280BAD2D580B8D22A
:1082B0003580B27F20120081F02032077401B509A9
:1082C0000040F0120081A6FF120081F0020082300F
:1082D000D238D236808F120081A6FB120081A6FA16
:1082E000120081A6F94A4B700679057A857B8120B8
:1082F000323DE50960397E00E9C0E02EF9EAC0E0D0
:108300003400FA12007557F9D0E0FAD0E0C96006DF
:108310000EEE650A70E2C2D5EBC0E0EAC0E0E9C04B
:10832000E0EE12008476D0E0F9D0E0FAD0E0FB1263
:10833000007557FF6096EBC0E0EAC0E0E9C0E012CC
:108340000081F0D0E02401F9D0E03400FAD0E0FB65
:10835000E50A0460DAD50AD7020082CC7BFF7A8472
:108360007972D2328089791080027908C236C23897
:108370008008D2D5790A8004790AC2D5E50A04704A
:1083800002F50AE4FAFDFEFF120081A6FC7B08203C
:108390003116120081A6FD7B1030300C120081A630
:1083A000FE120081A6FF7B20EC3382D592D55013BC
:1083B000C3E43030069FFFE49EFEE42031039DFDC0
:1083C000E49CFCE4CBF8C231EC700CCFCECDCCE811
:1083D00024F8F870F38017C3EF33FFEE33FEED336C
:1083E000FDEC33FCEB33FB994002FB0FD8E9EB309B
:1083F0003105F8D0E0C448B231C0E00AEC4D4E4F30
:1084000078207B0070C2EAB50A0040BCC0E01200D0
:108410008478D0F0D0E0203104C4C0E0C4B231C0D0
:10842000F0120081D9D0F0D5F0EA020082301200BB
:1084300078A182D65383665882A34C829F42836A76
:108440004F83724483724982B943837855835C4673
:10845000835C45835C4785225082A72D82AB2E82A8
:10846000D22B82AF2382D020850E2A82654800005D
:1084700082C83F3F3F00790AA2D520331430350926
:10848000B910020404B9080104A2D5203602500133
:108490000420326D9232B509005036C0E07F2030A2
:1084A000331A7F30A232723672355010120084D1E6
:1084B000C232C236C235C2387F308010303503E94F
:1084C000C0E0120081F0303503D0E0F9D0E0B5090A
:1084D000CA3035197F30B9100D120081F07F583045
:1084E00034077F788003B90804120081F030320627
:1084F0007F2D020081F07F202038F77F2B2036F27D
:1085000022923280CC286E756C6C2900D231120018
:1085100081A63031F7C231780930D50108F6020062
:108520008265120081A67F4960087F4310E7027FC1
:108530005814C0E0EF120081E1743A120081E1D0DA
:10854000E0600DC0E0C4120081D9D0E0120081D9F2
:10855000D2337509040200836655445020686F7356
:108560007420636C69656E7420736F636B6574202F
:10857000203A20002A2A4552524F522120554E417E
:10858000424C4520544F2043524541544520534FBF
:10859000434B45542A2A0A0D002564750A0D0055DF
:1085A000445020646174612000706F727420202038
:1085B00020202020202020203A202A2A42494E44F0
:1085C000494E47204552524F52212A2A0A0D007324
:1085D000657276657220706F7274202020203A20B8
:1085E0002564750A0D0073657276657220706F726E
:1085F00074202020203A202A2042494E44494E47E8
:10860000204552524F5221202A0A0D00636C6965A1
:108610006E7420706F72742020202020203A202554
:1086200064750A0D004E65772055445020636F6EC7
:108630006E656374696F6E203A2069643D256275CA
:108640002C2072656D6F7465506F72743D25646483
:108650002C20736F636B65743D2562750A0D0054A1
:10866000435049505F556470436C6F73652869646B
:108670003D2562752C20736F636B65743D256275B3
:10868000290A0D0053696D74656B000A0D2025637E
:1086900000202563002078203D2025303262782C90
:1086A000205772697465205030203D202530326299
:1086B00078002078203D2025303262782C205772B7
:1086C000697465205031203D2025303262780020C9
:1086D00078203D2025303262782C205772697465ED
:1086E000205032203D202530326278002078203D15
:1086F0002025303262782C205772697465205033FF
:10870000203D202530326278002057726974652040
:108710005030203D20253032627800205772697435
:1087200065205031203D202530326278002057727C
:10873000697465205032203D202530326278002057
:108740005772697465205033203D2025303262789D
:10875000002052656164205030203D202530326277
:1087600078002052656164205031203D2025303250
:108770006278002052656164205032203D2025300F
:10878000326278002052656164205033203D2025FC
:10879000303262780020656E61626C652F646973A7
:1087A00061626C65206175746F6D617469632070BE
:1087B0006F727420737461746520666565646261AC
:1087C000636B0A0D0020546F67676C6520503000A2
:1087D00020546F67676C652050310020546F6767C5
:1087E0006C652050320020546F67676C65205033F1
:1087F000000A0D696E76616C696420646562756754
:10880000206F702D636F6465203A202530326278C6
:108810002000696E76616C6964206F702D636F64EF
:1088200065203A2025303262780A0D004950203AFE
:10883000202569700A0D0031302D38363535002D70
:108840003031005F787878202000807542692D00F3
:108850003000310075432020206669726D776172A7
:108860006520706E20202020202020203A20002526
:10887000303262782D2530326278002530326278CD
:10888000203A2025630A0D00465047412066697250
:108890006D7761726520706E2020202020202020BE
:1088A0003A2000252D3234733A2000446562756702
:1088B00020526F7574696E65730064697361626CD0
:1088C00065640A0D00656E61626C65640A0D005492
:1088D00072616E736D6974204D6F646500536572CB
:1088E0007665720A0D00436C69656E740A0D002A84
:1088F0002A2A2A2A2A2A2A2A2A2A2A2A2A2A2A2AD8
:108900002A2A2A2A2A2A2A2A2A2A2A2A2A2A2A2AC7
:108910002A2A2A2A2A2A2A2A2A2A2A2A2A2A2A2AB7
:108920002A2A2A2A2A2A2A2A0A0D003E3E200045FF
:10893000746865726E6574204C696E6B2053706547
:108940006564203D206270730A0D00444843502046
:1089500020202020696E69742020202020202020E3
:108960002020203A2000706173730A0D002A2A45E6
:1089700052524F522A2A0A0D004448435020417354
:108980007369676E6564204950202020203A2000DA
:108990004448435020726573706F6E7365202D2DAF
:1089A0002000206661696C210A0D00496E737472A3
:1089B000756D656E742050617274204E756D6265C0
:1089C0007220203A2025730A0D004669726D776186
:1089D0007265204C617374205265766973656420FA
:1089E00020203A2025732025730A0D004A616E204D
:1089F000323320323031390031363A34303A31397D
:108A00000045746865726E6574204C6962726172AB
:108A100079205665722E2020203A2025730A0D00F9
:108A2000332E312E32303000554152542D3020201B
:108A300020696E6974202020202020202020202002
:108A40003A2070617373203A207365747570203D0D
:108A50002020393630302C382C6E2C310A0D005540
:108A60004152542D31202020696E6974202020202D
:108A7000202020202020203A2070617373203A208B
:108A80007365747570203D2020393630302C382CB9
:108A9000652C310A0D00212170617269747920669C
:108AA00061696C21210A0D00313230304032354D80
:108AB000487A00323430304032354D487A0034380C
:108AC00030304032354D487A00393630304032351A
:108AD0004D487A0031393230304032354D487A00D5
:108AE00032383830304032354D487A0033383430FF
:108AF000304032354D487A003537363030403235E7
:108B00004D487A0037363830304032354D487A009B
:108B100039343735304032354D487A0031313532CD
:108B200030304032354D487A0031323030403530C7
:108B30004D487A00323430304035304D487A003478
:108B40003830304035304D487A0039363030403595
:108B5000304D487A0031393230304035304D487A26
:108B60000032383830304035304D487A00333834B0
:108B700030304035304D487A00353736303040356A
:108B8000304D487A0037363830304035304D487AED
:108B90000039343735304035304D487A0031313581
:108BA0003230304035304D487A003132303040314B
:108BB00030304D487A0032343030403130304D481A
:108BC0007A0034383030403130304D487A00393610
:108BD0003030403130304D487A0031393230304019
:108BE0003130304D487A0032383830304031303012
:108BF0004D487A003338343030403130304D487A87
:108C0000003537363030403130304D487A00373615
:108C1000383030403130304D487A003934373530D3
:108C2000403130304D487A003131353230304031CA
:108C300030304D487A002020313230304032354DCE
:108C4000487A000A0D002D2D527848656164202570
:108C500064752C2052785461696C202564752C2031
:108C60005278436E74202564752D2D0A0D000A0D6F
:108C70002530346478203A00202530326278002D87
:108C80002D5278486561642025303464782C205258
:108C9000785461696C2025303464782C20527843F4
:108CA0006E74202564752D2D20000A0D2A2A2A2A8B
:108CB0002A2A2A2A2A2A2A2A2A2A2A2A2A2A2A2A14
:108CC0002A2A2A2A2A2A2A2A2A2A2A2A2A2A2A2A04
:108CD0002A2A2A2A2A2A2A2A2A2A2A2A2A2A2A2AF4
:108CE0002A2A2A2A2A2A2A2A2A2A2A2A2A2A2A2AE4
:108CF0002A2A2A2A0A0D005265616420757365725A
:108D000020636F6E66696720646174612020203A79
:108D10002000252D3234733A2025730A0D00006C93
:108D20006F6164696E672064656661756C74206349
:108D30006F6E66696775726174696F6E00666169EE
:108D40006C656421202877726F6E672063686563A5
:108D50006B73756D2963203D202564782C2073206A
:108D60003D202564780A0D006661696C65642120E8
:108D700028656570726F6D20726561642066616937
:108D80006C290A0D006661696C6564212028696E92
:108D900076616C696420626C6F636B206C656E67D2
:108DA00074682963203D202564752C2073203D20A4
:108DB0002564750A0D00706173730A0D00466169C0
:108DC0006C656420746F2070726F6772616D2043F0
:108DD0006F6E666967726174696F6E204461746159
:108DE00021210A0D00446576696365204E616D6539
:108DF00000252D3234733A20004D414320416464F4
:108E00007265737300253032627820000A0D0025E8
:108E10002D3234733A2025303464780A0D004E65C3
:108E200074776F726B2053657474696E6773002575
:108E30002D3273252D3232733A2025730A0D0053DB
:108E400065727665722F436C69656E7400436C6958
:108E5000656E740053657276657200444843500035
:108E6000456E61626C65640044697361626C65643F
:108E700000252D3273252D3232733A20252D3137BE
:108E80007300554450004F6E004F666600252D3626
:108E9000733A2025730A0D005443500042726F61EB
:108EA000644361737400252D3234733A20252D31CB
:108EB000376970004465766963652053657276652D
:108EC0007220495000252D36733A202564750A0D0D
:108ED00000506F727400486F73742053657276652A
:108EE00072204950000050C268B00031302D31323C
:108EF00033342D303120233130310075EBAA75EB3E
:108F000055759D02787FE4F6D8FD900000007F0043
:108F10007E807D01E4F0A3DFFCDEFADDF8750D66EE
:108F2000750ED875818402008F5402013EFEE493D1
:108F3000A3F85407240CC8C333C4540F4420C88377
:108F40004004F456800146F6DFE4800C0102040878
:108F50001020408090007D60E47E019360CCA3FFF0
:108F6000543F30E509541FFEE493A360010ECF5433
:108F7000E0B4E026E493FBA3E493FAA3E493F9A31B
:108F8000E493C083C082120075A8D082D083A30965
:108F9000E970010ADFEADEE880BE54C025E0602BFC
:108FA000408CE493A3FAE493A3F8E493A3C8C582A6
:108FB000C8CAC583CA759300F0759300A3C8C5825B
:108FC000C8CAC583CADFE3DEE1808DE493A3F8E479
:108FD00093A34003F68001F208DFF402008F585596
:108FE000445020756E696361737420706F727420D1
:108FF000202020202020203A2000202A2A42494EEA
:1090000044494E47204552524F52212A2A0A0D0008
:109010002564750A0D002A2042494E44494E4720D6
:109020004552524F5221202A0A0D006256616C6946
:1090300064526571203D205452554520262620005B
:109040006644656275674D6F6465203D204F4E2014
:10905000262620004C656E677468203D20476F6FA0
:10906000640A0D004C656E677468203D204261649F
:109070000A0D005544502062726F6164636173741D
:1090800020706F72742020202020203A20002A2A8D
:1090900042494E44494E47204552524F52212A2AB6
:1090A0000A0D002564750A0D002A2042494E4449E4
:1090B0004E47204552524F5221202A0A0D00204D82
:1090C0004143204241440A0D00202530326278009D
:1090D0002025303262780A0D00204D414320474F51
:1090E0004F442000000000000000000000000000CD
:1090F000000000000000000000EFB40A08740D1228
:10910000009105740A309811A899B8130CC29830D0
:1091100098FDA899C298B811F63099FDC299F599B1
:109120002210390D12006047BF0D027F0A02009025
:10913000F990002D8DE0FF22E4FFFE1200755760CC
:109140000C0FEF70010E09E970F10A80EE220000A9
:1091500000000000000090002C52EFF01200D2C876
:109160001200D15690001420E0601B900002D674CB
:1091700001F0A37402F074F11200D2DA740212004A
:10918000D23D74028039900013D7E0900002D6607F
:10919000177401F0A37402F074E91200D2DA7402B9
:1091A0001200D23D740280177401F0A37402F0A380
:1091B00074DB1200D2DBA374021200D23E7402F000
:1091C000A3E9F090002C52E06402600301946F1256
:1091D00000D138787E06E6700C1806E6700718068F
:1091E000E67002180678831200D3321200D096126D
:1091F00000D0B5FF64076005EF6405702990002C6E
:10920000531200D096241A1200D1881200755764A8
:1092100078600301AC951200D0D524191200D0EE6D
:1092200078717620806D90002C531200D096120039
:10923000D0B5700301AC951200D0D51200D0BF4557
:10924000F0700301932C1200D0D51200D2B074FF3D
:109250001200756D600301AC9590002C531200D084
:1092600096241B1200D0B7FF640860151200D0D5F9
:109270001200D0B5FE64026004EEB4011DEFB40329
:109280001990002C531200D09624191200D0EE78B9
:109290007176801200C06701A7F090002C53120075
:1092A000D096241B1200D0B7FFD3940440067E044E
:1092B0007F0480007403A807088002C333D8FCFF32
:1092C00090002C531200D0961200D2B0EF1200D1B1
:1092D000661200D096241B1200D1881200D0D5123D
:1092E00000D0B5540F147003019FC324FE601E14F8
:1092F000700301A65C24FE700301A65C24FE7003CB
:1093000001A65C2406600301AC950194A91200D368
:1093100098787176041200AC9C7B0190002C53EB82
:109320001200D1561200D3A4E90194CC90002C5322
:109330001200D0961200D0B5540F6403600301AC44
:10934000951200D0D5241E1200D0B7700301943CB2
:109350001200D0D51200D2711200D3AC64E07003B9
:10936000EE6401600301AC9590002C531200D0967E
:10937000241F1200D0B7C39404400301942D12009F
:10938000D18C1200D0D51200D12B1200D092120035
:10939000D2061200D31376291200D0921200D27195
:1093A0007450120075A81200D024241A1200D0CBD9
:1093B00090002C531200D096240F1200D0B7C39403
:1093C000011200D091241B1200D0CBF4600301AA3B
:1093D0009E90002C531200D096240E1200D0B7C3DA
:1093E00094011200D091241A1200D0CBF460030132
:1093F000AA9E90002C531200D096240D1200D0B7D4
:10940000C394011200D09124191200D0CBF4600350
:1094100001AA9E90002C531200D096240C1200D06A
:10942000B7C394011200D091241801AA9A90002C7D
:10943000531200D0961200D271E4801C90002C537D
:109440001200D0961200D2711200D3AC6480700367
:10945000EE6407600301AC951200D13290002C53EA
:109460001200D0961200D0EC7871760801A7D09047
:10947000002C52E0FFB4031A1200D2128C831200A7
:10948000D3431200D124FCA3E04C700301AC95013E
:109490009908EF6404704090002C531200D096128B
:1094A00000D0B5540F24FE700C1200D0921200D3DD
:1094B0008AE4019FCB900008C7E020E20301A7D413
:1094C0001200D3A490002C531200D0961200D37730
:1094D0001200764A01A8D51200D1381200D3B81272
:1094E00000D092F9120075576445600301AC95E90C
:1094F00024021200D0B7FDFB7883E66B7001E460B4
:109500000BEDFE08E6FDEE18F6ED08F61200D0921F
:1095100024031200D0B7FF7884E66F7001E460087E
:1095200018E60818F6EF08F61200D092240612008A
:10953000D0B7543F600301AC951200D0F824071255
:1095400000D0B7600301AC95900013D7E0605512CE
:1095500000D3F2FF4E604D1200D0921200D0BFFD3A
:10956000ACF0C3EC94E0503CED6F7002EC6E600325
:1095700001AC951200D09224121200D0C1FFAEF0BF
:109580007852E6FC08E6FD6F7002EE6C6016EFF4B0
:10959000600301AC95120075FAE47003E5F06C60AD
:1095A0000301AC951200D09224091200D0B7FF64D9
:1095B0000670030199F2EF64117003019663EF6482
:1095C00001600301AC95900000941200D096241421
:1095D0001200D0B7FF6408601EEF600301AC9590E5
:1095E0000013D41200D096F9EA494B700301AC95F0
:1095F000120078C901AC95900000941200D0962416
:10960000141200D0EE1200D0921200D0BF1200D17E
:10961000D11200D092240C1200D0C1FD1200D0F85B
:109620001200D17A1200D092240C1200D0E1120064
:10963000D09224121200D0C1181200D1D31200D03F
:1096400092240E1200D0C1FD1200D0F82412120094
:10965000D17C1200D092240EF9E43AFAEE8FF00297
:1096600000764AE47871F6900000977400F0A374D5
:1096700001F01200D212FDC39491EC94004003015A
:1096800097DC1200D2331200D3461200D124FEA37D
:10969000E0FF4E70030197C9900000A31200D0961E
:1096A00024161200D0C1FDEF6D7003EE65F060036B
:1096B0000197C91200D2B71200D2E51200D124FEE0
:1096C000A3E0FF4E601C900000A3A3E0FAA3E024F7
:1096D000141200D0C1FDEF6D7003EE65F060030160
:1096E00097C91200D192FD4C70071200D1F84E605C
:1096F00059BCFF14BDFF111200D2B7F5821200D180
:10970000FAF47002EEF460421200D092240C1200BF
:10971000D0C11200D20FF5828C831200D19F6F70DE
:1097200002EC6E60030197C91200D0F8240E1200FB
:10973000D0C11200D20FF5828C83759300A3A3E0F1
:10974000FCA3E06F7002EC6E707F1200D2B7FF12C4
:1097500000D2E51200D124FCA3E04C70239000005D
:10976000A31200D09624141200D0C1FDACF0120058
:10977000D3F924061200D1EDECF0A3EDF00198DA54
:109780001200D1924C60030198DA1200D1F84E60B9
:10979000030198DA1200D092240C1200D0C11200FA
:1097A000D20FFDF5828C831200D21D1200D09224BC
:1097B0000E1200D0C1FFAEF08D828C83759300A392
:1097C000A3EEF0A3EFF00198DA90000098E02409EE
:1097D000F090000097E03400F0019672E47880F693
:1097E0001200D303400301AC95900000A31200D0F7
:1097F0009624161200D0C1FDEF25E02457F9ED673D
:109800007004E5F01967600578800680D3E47880FD
:10981000F61200D1DC40030198D01200D1A712004B
:10982000D124FEA3E04E60030198CA900000A31269
:1098300000D09624161200D0C1FFAEF0E6FD120053
:10984000D1A81200D21B900000A31200D0962414BD
:109850001200D0C11200D3812407F582E434001233
:1098600000D21B1200D092240C1200D0C11200D3DF
:10987000812401F582E434001200D21B1200D09240
:10988000240E1200D0C11200D3812403F582E434E7
:10989000001200D21BED75F009A42409F582E4340E
:1098A00000F5837593007410F0ED75F009A42401A0
:1098B000F582E43400759300AF8290000097F0A326
:1098C000EFF07871E64440F6800678800601981142
:1098D0007880E66410700301AC95788474E426F611
:1098E0001874FF36F690001808E01200D1B774F72C
:1098F0002FF974021200D14E7871E64402F6E47832
:1099000081F608F61200CBEC7882E6184670030167
:10991000AC957882E6241C7984F718E43619F77838
:1099200083E6FF1200D0921200D24B08E6FF12002D
:10993000D09224031200D24D1200D0922409F9E4EF
:109940003AFA7411120075A87882E62408FF18E428
:1099500036FE900000A31200D09624181200D3798E
:109960001200764A900000A31200D096241A12002A
:10997000D12D1200D2B7FF8E831200D3431200D133
:1099800024FCA3E0FD1200D0922414F9E43AFAEC8E
:109990001200D1821200D3F91200D2EA1200D124AF
:1099A000FEA3E01200D09124161200D0E11200D3E1
:1099B000F21200D091240C1200D0E108E6FE08E675
:1099C0001200D091240E1200D0E11200D192FD12AB
:1099D00000D0922410F9E43AFAEC1200D18212007D
:1099E000D1F81200D0912412F9E43AFAEE8FF00186
:1099F000AC081200D263F0A37400F0A374A6F012B6
:109A000000D0D5C3900002D69582EA958340030129
:109A10009ADF90002C53E0FBA3A3E01200D0B570B6
:109A200003019AD01200D0D524041200D0C1FFAE99
:109A3000F01200D09224161200D0C16F7003E5F02E
:109A40006E6003019AD090002C531200D096240629
:109A50001200D0C1FFAEF01200D09224141200D038
:109A6000C16F7003E5F06E70671200D0F8240C121D
:109A700000D0C1FFAEF090002C531200D096F91226
:109A80000075FA6F7003EE65F07045E9240212006C
:109A9000D0C1FFAEF01200D092240E1200D0C1B59A
:109AA000072EE5F0B5062990002C531200D096122F
:109AB00000D0B56407600301A02C1200D0922421CD
:109AC0001200D0B7543F6402600301A02C019D3402
:109AD00090002C54E475F023120075CE0199FF120A
:109AE00000D09224211200D0B7543F640270341287
:109AF00000D09224161200D0C1786FA6F008F6E4C8
:109B00007880F61200D303501AEF25E02439F97853
:109B100070E667700418E619677003019CA17880ED
:109B20000680E01200D09224211200D0B730E20368
:109B300001AC9574141200D31376281200D092123F
:109B400000D2717450120075A81200D092241B121A
:109B500000D0B7FF7880F61200D092241F1200D0F8
:109B6000B71200D0F7241B1200D2281200D0922482
:109B70001F1200D0CB1200D092241A1200D0B7FFCF
:109B8000F61200D092241E1200D0B71200D0F72493
:109B90001A1200D2281200D092241E1200D0CB122A
:109BA00000D0921200D0B5FFF61200D092241D1200
:109BB00000D0B71200D0F724191200D2281200D01A
:109BC000921200D0C91200D09224181200D0B7FF10
:109BD000F61200D092241C1200D0B71200D0F71257
:109BE00000D2261200D092241C1200D0CB1200D03A
:109BF00092241F1200D18870221200D0F8241E1265
:109C000000D18870161200D0F8241D1200D188707F
:109C10000A1200D0F8241C1200D1881200D092241D
:109C2000141200D0C11200D1D11200D09224161209
:109C300000D0C1FD1200D0F824141200D17C120013
:109C4000D09224161200D0E11200D0921200D0BFA0
:109C50001200D4031200D092240C1200D0C1FD12C5
:109C600000D0F81200D17A1200D092240C1200D049
:109C7000E11200D09224121200D0C11200D40312BB
:109C800000D092240E1200D0C1FD1200D0F8241290
:109C90001200D17C1200D092240E1200D0E101AB50
:109CA000CE90002C53E4F0A374FFF0A3F0E478808E
:109CB000F61200D1DC505F1200D2961200D124704F
:109CC0000A1200D2561200D156804B7880E6FF75FA
:109CD000F0231200D29A1200D1246407703390004E
:109CE0002C531200D096F94A601DE9241A1200D0B4
:109CF000B7FE75F023EFA424C0F582E5F03400121E
:109D000000D124D39E400A78801200D2561200D18E
:109D100056788006809B90002C531200D096F9F460
:109D20007002EAF4700301AC95E924221200D20813
:109D3000120075A890002C531200D0961200D3C3C5
:109D40001200D2B074031200D1661200D09624180B
:109D5000F9E43AFA74031200D1661200D096241680
:109D60001200D0EE90002C531200D0962417F9E484
:109D70003AFA74041200D1661200D096241B120025
:109D8000D0EE1200D09224161200D0C1FF90002C09
:109D9000531200D09624041200D1E61200D0E6122D
:109DA00000D09224141200D0C1FF90002C53120056
:109DB000D09624061200D1E61200D0E61200D0920E
:109DC000240C1200D0C1FF90002C531200D096F941
:109DD000E5F01200D0E61200D092240E1200D0C19D
:109DE000FF90002C531200D0961200D1E41200D044
:109DF000E690002C531200D0961200D26A74011221
:109E000000D1661200D096241E1200D0EE90002CD5
:109E1000531200D0961200D12B90002C531200D078
:109E2000961200D0EC787B1200D2C11200D096249A
:109E30000C1200D0CB1200D2C01200D096240D120A
:109E400000D0CB1200D2C01200D096240E1200D047
:109E5000CB1200D2C01200D096240F1200D0CB90AB
:109E6000002C531200D0961200D1C31200D09224BD
:109E70001B1200D0B7FF90002C531200D096240B79
:109E80001200D0CB1200D092241A1200D0B7FF904B
:109E9000002C531200D096240A1200D0CB1200D00E
:109EA000921200D0B5FF90002C531200D0962409D6
:109EB0001200D0CB1200D09224181200D0B7FF901D
:109EC000002C531200D09624081200D0CB7F017EC4
:109ED00000120191741200D09224221200D0B7FF18
:109EE00090002C531200D096241C1200D0CB1200EC
:109EF000D09224231200D0B7FF90002C531200D030
:109F0000961200D0C91200D09224201200D0B7546B
:109F1000F0D394505003019FC3E47880F61200D030
:109F20009224201200D0B71200D34EC333CE33CECA
:109F3000D8F91200D35D4003019FC3ED1200D1B7E1
:109F40001200D2811200D123787FF66076787FE606
:109F5000FDB40104080680C5ED640270571200D1FB
:109F60001C6404704F1200D1B41200D2F21200D15E
:109F7000241200D40D1200D124FDED786F1200D10F
:109F8000D51200D31DC39FEC9E5006AE04AF0580D2
:109F900007786FE6FE08E6FF90002C531200D0967B
:109FA0001200D0DF90002C531200D096241412001F
:109FB000D0E1800F1200D102FF60087880EF26F612
:109FC000019F1D1200D0921200D206120075A81235
:109FD00000D09224211200D0B74402120075A812BA
:109FE00000D0922428F9E43AFA7402120075A812FB
:109FF00000D0922429F9E43AFA7404120075A812E8
:10A0000000D31DEC1200D091242A1200D0CB1200F4
:10A01000D092242BF9E43AFAED1200D313762C12E5
:10A0200000D0921200D271746001AA7C1200D0D5C7
:10A030001200D3C3E47871F6900008C7F01200D084
:10A040009224211200D0B730E21390002C5312005A
:10A05000D09624191200D0EE762001A9661200D005
:10A060009224201200D0B7C4540F25E025E0FF78D9
:10A0700080F6C37884E69FFF18E69400CFC394145B
:10A0800008F6EF940018F6081200D171500D120076
:10A09000D09224211200D0B730E06690002C5312E9
:10A0A00000D09624081200D08924181200D0B76F6F
:10A0B000600301AA5F90002C531200D0962409126D
:10A0C00000D0891200D0B56F600301AA5F90002C08
:10A0D000531200D096240A1200D089241A1200D0FC
:10A0E000B76F600301AA5F90002C531200D0962432
:10A0F0000B1200D089241B1200D0B76F600301AA95
:10A100005F1200D09224211200D0B720E40301A3F3
:10A11000BA90002C531200D0961200D0BFFDACF0C4
:10A120004C700301A3BA1200D0D5240CF9E43AFA1A
:10A1300012017D321200D092241C1200D0B7FF9081
:10A1400000009FE06F600301A28C1200D0F8241D74
:10A150001200D0B7FE900000A0E06E600301A28C58
:10A160001200D0F8241E1200D0B7FE900000A1E02B
:10A170006E600301A28C1200D0F8241F1200D0B729
:10A18000FE900000A2E06E600301A28C9000009F90
:10A190001200D3911200D096240C1200D327900005
:10A1A00000A01200D3911200D096240D1200D327E4
:10A1B000900000A11200D3911200D096240E12003C
:10A1C000D327900000A21200D3911200D096240F42
:10A1D000F9E43AFAEE1200D1661200D096241B126E
:10A1E00000D0B7600301A26E1200D0D5241A12006D
:10A1F000D0B71200D0D424181200D0B7C39EFE905E
:10A20000002C56F01200D0D524161200D0B713132C
:10A2100013541FFDC3EE9DFE1200D278C3EE64807E
:10A220009480500890002C56E0F404F090002C56D6
:10A23000E0FE90002C531200D09624171200D0B7E5
:10A240001313543FFDC3EE9D1200D2781200D0D5F7
:10A2500024161200D0B7131313541F1200D0D424A5
:10A26000171200D0B72E1200D0D41200D226787167
:10A27000760190002C531200D09624181200D0B70B
:10A280001200D0D41200D2B0EE01A3A290002C5341
:10A290001200D096240C1200D0B76F600301A3BA4D
:10A2A0001200D0D5240D1200D089241D1200D0B781
:10A2B0006F600301A3BA1200D07C241E1200D0B735
:10A2C0006F600301A3BA90002C531200D096240FA4
:10A2D0001200D089241F1200D0B76F600301A3BA07
:10A2E000900008C7E04480F090002C531200D096F4
:10A2F000241B1200D0B7600301A3861200D0D5241E
:10A300001A1200D0B7FF1200D0D524181200D0B70F
:10A31000C39FFF90002C56F01200D0D524161200D7
:10A32000D0B7131313541FFEC3EF9EFF1200D27851
:10A33000C3EF64809480500890002C56E0F404F041
:10A3400090002C56E0FF90002C531200D09624175A
:10A350001200D0B71313543FFEC3EF9E1200D27801
:10A360001200D0D524161200D0B7131313541FFFB8
:10A370001200D0D524171200D0B72FFF1200D0D56D
:10A3800024181200D0CB7871760190002C53120063
:10A39000D09624181200D0B7FF1200D0D51200D2E8
:10A3A000B0EF1200D1661200D0961200D12B9000AF
:10A3B0002C531200D0961200D0EC1200D09224221E
:10A3C0001200D0B7C39440501B90002C531200D001
:10A3D00096241C1200D0B7D394804008900008C780
:10A3E000E04440F090002C531200D0961200D0B5FB
:10A3F000540F14B40800400301AC959000A40A75F2
:10A40000F004A4C58325F0C583730200A42A0200CA
:10A41000A45A0200A6020200A96D0200A9F40200DB
:10A42000AA3D0200AA5F0200A94D7871E620E00370
:10A4300001AC951200D3EC764090002C531200D062
:10A440009624101200D12D1200D16F40041200ACDE
:10A45000ACE47881F608F601A7D07871E620E00335
:10A4600001A5F71200D09224211200D0B764126027
:10A470000301A5F71200D0F824201200D0B754F041
:10A48000D39450500301A534E47880F61200D092A2
:10A4900024201200D0B71200D34EC333CE33CED80F
:10A4A000F91200D35D400301A534ED1200D1B712BB
:10A4B00000D2811200D123787FF66078787FE6FDA4
:10A4C000B40104080680C5ED640270591200D11C65
:10A4D000640470511200D1B41200D2F21200D124DF
:10A4E0001200D40D1200D124FDEDFF786FEEF608B6
:10A4F000EFF61200D31DC39FEC9E5006AE04AF05CD
:10A500008007786FE6FE08E6FF90002C531200D01B
:10A51000961200D0DF90002C531200D09624141213
:10A5200000D0E1800F1200D102FF60087880EF2692
:10A53000F601A48C90002C531200D0961200D26A1F
:10A540001200D3EC1200D09224181200D0B7FF9062
:10A55000002C531200D09624081200D0CB1200D049
:10A56000921200D0B5FF90002C531200D09624090F
:10A570001200D0CB1200D092241A1200D0B7FF9054
:10A58000002C531200D096240A1200D0CB1200D017
:10A5900092241B1200D0B7FF90002C531200D096CB
:10A5A000240B1200D0CB7F017E00120191741200A7
:10A5B000D09224221200D0B7FF90002C531200D06A
:10A5C00096241C1200D0CB1200D09224231200D06B
:10A5D000B7FF90002C531200D0961200D0C97871AA
:10A5E000764290002C531200D09624101200D12DE8
:10A5F0001200D39801A7D0787176201200C06701AD
:10A600009B231200D09224211200D0B730E0507862
:10A6100084E62401FF18E436FE1201917478717605
:10A62000101200D16F40067871E64402F61200ACB9
:10A630009C7B0190002C53EB1200D1561200D1C329
:10A6400090002C531200D0961200D26A74081200A7
:10A65000D1661200D096241B1200D0EE01A82B1256
:10A6600000D09224211200D0B730E55E1200D0F85D
:10A6700024261200D0B71200D0F824271200D0B739
:10A680007872F6E6D3788496E41896400508E67862
:10A6900072F67872E6FF7E00120191747872E6FF1E
:10A6A000C37884E69FF618E69400F69000009912AD
:10A6B00000D2A8A3C91200D1567872E6FF9000001C
:10A6C0009AE48FF0120075CE802AE47872F61200B8
:10A6D000D09224261200D0B71200D0F724271200FF
:10A6E000D0B7FDEDFF9000009AEE8FF0120075CE0E
:10A6F0001200D3B81200D16F401590002C531200F5
:10A70000D0961200D0B520E4061200ACAC8045789B
:10A7100084E61846703E1200D09224211200D0B771
:10A720006410703090002C531200D096241E12003A
:10A73000D0B760201200D0D5241F1200D0B760140B
:10A740001200D0D51200D12B90002C531200D096BD
:10A750001200D0EC1200D09224221200D0B71200C6
:10A76000D0F724231200D0B77C002400FFEC3EFE7B
:10A77000786FF608EFF690002C531200D096241450
:10A780001200D0C1FDACF0D3EF9DEE9C5005E61851
:10A79000467007786FA60408A605786FE6FE1200DB
:10A7A000D2C01200D0961200D0DF08E65403700326
:10A7B00001AC9590002C531200D0961200D12B9032
:10A7C000002C531200D0961200D0EC7881F608F6D7
:10A7D0001200C0671200D2C81200D1567871E6305C
:10A7E000E51B1200D3301200D09624191200D0EECF
:10A7F0001200D0921200D38A741401AA677871E60D
:10A8000030E4351200D3301200D0961200D1C3903C
:10A81000002C531200D0961200D26A74041200D198
:10A82000661200D096241B1200D0EE1200D09212B5
:10A8300000D38A741101AA67900008C7E030E103D1
:10A8400001AC95D378821200D17240667871E630FF
:10A85000E00E90002C531200D09624101200D12D3F
:10A8600090002C531200D0961200D0BF45F0702EED
:10A870001200D0D524121200D0C1FFAEF0D37882DE
:10A88000E69F18E69E4005A60608A6071200D3A478
:10A8900090002C531200D0961200D37780259000A0
:10A8A0002C531200D0961200D0BF7881A6F008F683
:10A8B000801590002C531200D0962410F9E43AFA37
:10A8C000E4F5F01200764A90002C531200D0962442
:10A8D0001B1200D0EE900000911200D2A8C9120005
:10A8E000D152D378821200D172404390002C53127F
:10A8F00000D0961200D0BFFFAEF0D39400EE9400CB
:10A90000402CEF24287884F6E43E18F6900008C71F
:10A91000E0900002D630E00C1200D0961200D38AEC
:10A92000741880221200D0961200D2068018787116
:10A93000E620E10301AC95788376000876281200C2
:10A94000D0921200D206120075A801AA727871E6A0
:10A9500020E00301AC9590002C531200D0962419EE
:10A960001200D0EE76101200C06701AC951200D133
:10A970006F40041200ACBE1200D09224211200D00D
:10A98000B730E0407871E690002C5330E02212009E
:10A99000D0961200D15E1200D096241A1200D0EE8A
:10A9A00090002C531200D09624101200D12D800E4E
:10A9B0001200D0961200D26A7406120075A87F01A8
:10A9C0007E0080607871E630E01F90002C5312000A
:10A9D000D0961200D26A74051200D1661200D09689
:10A9E00024101200D12D01AC951200D16F5003013B
:10A9F000AC95806B1200D16F40041200ACBE120007
:10AA0000D09224211200D0B730E02790002C5312AE
:10AA100000D0961200D15E1200D096241A1200D0F7
:10AA2000EE7F01FE12019174787176101200C067FA
:10AA3000802D1200D16F500301AC9580227871E611
:10AA400020E00301AC9590002C531200D096120028
:10AA5000D15E1200D096241A1200D0EE01AC9512ED
:10AA600000D0921200D206120075A87883760008F2
:10AA700076281200D0921200D2717450120075A87C
:10AA80001200D024241A1200D0CB90002C531200B4
:10AA9000D096240F1200D089241B1200D0CB900036
:10AAA0002C531200D09624081200D089241C1200C6
:10AAB000D0CB90002C531200D09624091200D089DC
:10AAC0001200D0C990002C531200D096240A120014
:10AAD000D089241E1200D0CB90002C531200D096A7
:10AAE000240B1200D089241F1200D0CB1200D09268
:10AAF0002409F9E43AFA74061200D1661200D096DD
:10AB000024041200D0C11200D09124141200D1E606
:10AB10001200D0E690002C531200D09624061200AA
:10AB2000D0C11200D09124161200D1E61200D0E656
:10AB30001200D3F21200D091240C1200D0E108E6EA
:10AB4000FE08E61200D091240E1200D0E190002CF5
:10AB5000531200D096F9120075FA1200D091241009
:10AB60001200D1E61200D0E690002C531200D096CD
:10AB700024021200D0C11200D09124121200D1E69A
:10AB80001200D0E690002C531200D0961200D0B5DF
:10AB9000900002D630E4171200D09624231200D081
:10ABA000EE1200D0922422F9E43AFAE4801C12005A
:10ABB000D0962422F9E43AFA7416120075A812000D
:10ABC000D0922423F9E43AFA74D0120075A878835D
:10ABD000E6FF1200D0921200D24B08E6FF1200D01E
:10ABE0009224031200D24D1200D09224261200D0DB
:10ABF000EE1200D09224271200D0EE1200D0922440
:10AC000024F9E43AFAE4F5F01200764A1200D09200
:10AC1000F97445120075A81200D09224011200D0D8
:10AC2000EE90001809E0900002D6B4010E1200D098
:10AC3000962406F9E43AFA7440800B1200D0962468
:10AC400006F9E43AFAE4120075A81200D09224073B
:10AC50001200D0EE1200D0922408F9E43AFA74FF00
:10AC6000120075A8785506E6187001067854E6FCBF
:10AC700008E6FDEC1200D09124041200D0CBAF0501
:10AC80001200D09224051200D0CB1200D092240AD8
:10AC90001200D12D22E47883F608F6221200C06754
:10ACA000900002D9E0FEA3E0AA06F9227871E644FA
:10ACB00002F67883E6FE08E6FF1201917422E6FEB2
:10ACC00008E6FF1201917422900013CCE0FF90007F
:10ACD0002B73EFF0E490002B76F0A3F07871E6642C
:10ACE00004600301AE3190002B73E0FF75F01EA4E9
:10ACF00024D6F582E5F03414F583759300E0FBA3C8
:10AD0000E0FAA3E0F975F01EEFA424DCF582E5F08B
:10AD10003414F583759300EBF0A3EAF0A3E9F07522
:10AD2000F01EEFA424D0F582E5F03414F58375937A
:10AD300000E0FEA3E0FF90002B73E0FD75F01EA481
:10AD400024D2F582E5F03414F583759300E0FAA37C
:10AD5000E02FFFEA3EFE75F01EEDA424D4F582E557
:10AD6000F03414F583759300EE8FF0120075CE90D9
:10AD7000002B73E0FF75F01EA424CAF582E5F034C1
:10AD800014F583759300E0FE900002D9E0FCA3E087
:10AD9000FD8C83759300240CF582E43583F583756F
:10ADA0009300EEF075F01EEFA424CBF582E5F034AD
:10ADB00014F583759300E0FF8D828C83759300E515
:10ADC00082240DF582E43583F583759300EFF090CE
:10ADD000002B73E0FF75F01EA424CCF582E5F0345F
:10ADE00014F583759300E0FE8D828C83759300E5E6
:10ADF00082240EF582E43583F583759300EEF075B9
:10AE0000F01EEFA424CDF582E5F03414F58375939C
:10AE100000E0FF8D828C83759300E582240FF5821C
:10AE2000E43583F583759300EFF090002B77740180
:10AE3000F090002B73E0FF75F01EA424D4F582E59A
:10AE4000F03414F583759300E0FCA3E0FD90002B33
:10AE500074ECF0A3EDF075F01EEFA424C5F582E5C7
:10AE6000F03414F583759300E0FF90002B73E0FE3F
:10AE700075F01EA424CEF582E5F03414F5837593A5
:10AE800000E0FBA3E0900002D9CBF0A3EBF0ED4C87
:10AE9000600301B0E9900008C7E020E70301B07942
:10AEA00075F01EEEA424D2F582E5F03414F5837516
:10AEB0009300E0FCA3E04C700301B020900002D9A5
:10AEC000E0FEA3E0FF8E83759300240CF582E43549
:10AED00083F583759300E0FD90002B73E0FC75F023
:10AEE0001EA424CAF582E5F03414F583759300EDB1
:10AEF000F08F828E83759300E582240DF582E43510
:10AF000083F583759300E0FF75F01EECA424CBF568
:10AF100082E5F03414F583759300EFF0900002D9C8
:10AF2000E0FEA3E0FF8E83759300240EF582E435E6
:10AF300083F583759300E0FD90002B73E0FC75F0C2
:10AF40001EA424CCF582E5F03414F583759300ED4E
:10AF5000F08F828E83759300E582240FF582E435AD
:10AF600083F583759300E0FF75F01EECA424CDF506
:10AF700082E5F03414F583759300EFF075F01EEC64
:10AF8000A424D9F582E5F03414F583759300E0F933
:10AF9000A3E0FAA3E090002B78C9F0A3EAF0A3E9BC
:10AFA000F090002B78E0FBA3E0FAA3E0F975F01E27
:10AFB000ECA424D6F582E5F03414F583759300EB08
:10AFC000F0A3EAF0A3E9F075F01EECA424D2F58218
:10AFD000E5F03414F583759300E0FEA3E0FF9000E4
:10AFE0002B74EEF0A3EFF090002B73E0FD75F01ED4
:10AFF000A424D0F582E5F03414F583759300EEF0C7
:10B00000A3EFF075F01EEDA424D2F582E5F0341420
:10B01000F583759300E4F0A3F0900008C704804F17
:10B0200090002B73E0FF75F01EA424D6F582E5F0A6
:10B030003414F583759300E0F9A3E0FAA3E09000DF
:10B040002B78C9F0A3EAF0A3E9F075F01EEFA42471
:10B05000D0F582E5F03414F583759300E0FFA3E0AA
:10B0600090002B74CFF0A3EFF0900008C77401F0AC
:10B0700090002B7604F001B677EFB4011D7871765D
:10B080001090002B73E075F01EA424C2F582E5F049
:10B090003414F5837593007403F090002B73E0FE75
:10B0A00075F01EA424C4F582E5F03414F58375937D
:10B0B00000E0FF75F01EEEA424C3F582E5F0341421
:10B0C000F583759300E075F00AA42425F582E43435
:10B0D00014F583759300E0FBA3E0FAA3E0F5828A00
:10B0E000838B937D03020078CF90002B77E0600381
:10B0F00001B1B3900002D9E0FEA3E0FF8E83759307
:10B1000000240CF582E43583F583759300E0FD900F
:10B11000002B73E0FC75F01EA424CAF582E5F03420
:10B1200014F583759300EDF08F828E83759300E59F
:10B1300082240DF582E43583F583759300E0FF7575
:10B14000F01EECA424CBF582E5F03414F58375935E
:10B1500000EFF0900002D9E0FEA3E0FF8E8375932C
:10B1600000240EF582E43583F583759300E0FD90AD
:10B17000002B73E0FC75F01EA424CCF582E5F034BE
:10B1800014F583759300EDF08F828E83759300E53F
:10B1900082240FF582E43583F583759300E0FF7513
:10B1A000F01EECA424CDF582E5F03414F5837593FC
:10B1B00000EFF0D390002B75E0940090002B74E02A
:10B1C0009400500301B7EB90002B76E0FF04F0EF02
:10B1D0009402400301B7EB90002B73E0FF75F01E63
:10B1E000A424DCF582E5F03414F583759300E0F9CE
:10B1F000A3E0FAA3E090002B78C9F0A3EAF0A3E95A
:10B20000F0900008C7E020E70301B35375F01EEF8C
:10B21000A424D2F582E5F03414F583759300E0FCA4
:10B22000A3E0FD4C7008900008C77402F022900063
:10B2300002DAE0240CFF900002D9E03400FAA907FA
:10B240007B0112017D329000009FE0FF900002D947
:10B25000E0FCA3E0FD8C83759300240CF582E435BB
:10B2600083F583759300EFF0900000A0E0FF8D82DE
:10B270008C83759300E582240DF582E43583F58394
:10B28000759300EFF0900000A1E0FF8D828C837534
:10B290009300E582240EF582E43583F583759300EF
:10B2A000EFF0900000A2E0FF8D828C83759300E5A3
:10B2B00082240FF582E43583F583759300EFF090D7
:10B2C000002B73E0FF75F01EA424D9F582E5F0345D
:10B2D00014F583759300E0FBA3E0FAA3E0F975F0A1
:10B2E0001EEFA424D6F582E5F03414F5837593009F
:10B2F000EBF0A3EAF0A3E9F075F01EEFA424D2F579
:10B3000082E5F03414F583759300E0FEA3E0FF902E
:10B31000002B73E0FD75F01EA424D0F582E5F03417
:10B3200014F583759300EEF0A3EFF090002B78E016
:10B33000FBA3E0FAA3E0F975F01EEDA424D9F58291
:10B34000E5F03414F583759300EBF0A3EAF0A3E97C
:10B3500001B3ED900008C7E020E60301B3F79000C9
:10B360002B73E0FE75F01EA424C4F582E5F03414BE
:10B37000F583759300E0FF75F01EEEA424C3F582FB
:10B38000E5F03414F583759300E075F00AA42425E4
:10B39000F582E43414F583759300E0FBA3E0FAA38F
:10B3A000E0F5828A838B937DF1120078CF90002B99
:10B3B00078E0FBA3E0FAA3E0F990002B73E0FF75BF
:10B3C000F01EA424D6F582E5F03414F583759300BD
:10B3D000EBF0A3EAF0A3E9F075F01EEFA424D2F598
:10B3E00082E5F03414F583759300E4F0A3F0900047
:10B3F0002B76E004F0804D90002B76E090002B78C7
:10B40000B4011BE0FBA3E0FAA3E0F990002B73E08A
:10B4100075F01EA424D6F582E5F034148019E0FB03
:10B42000A3E0FAA3E0F990002B73E075F01EA424CA
:10B43000D9F582E5F03414F583759300EBF0A3EAB7
:10B44000F0A3E9F0900002D9E0FEA3E08E837593AB
:10B45000002412F582E43583F583759300E0FEA3A2
:10B46000E0FF900008C7E030E62790002B74E4F07E
:10B47000A304F090002B73E075F01EA424D0F58295
:10B48000E5F03414F583759300E4F0A304F001B5FE
:10B49000C1D390002B75E09F90002B74E09E404E2E
:10B4A000EF9404FFEE9400F0A3EFF0A3E090002BE4
:10B4B00074B40118E0FEA3E0FF90002B73E075F078
:10B4C0001EA424D0F582E5F034148016E0FEA3E03B
:10B4D000FF90002B73E075F01EA424D2F582E5F0F6
:10B4E0003414F583759300EEF0A3EFF0805C9000C8
:10B4F0002B76E0FD6401705A900002D9E0FEA3E0D3
:10B500008E837593002404F582E43583F583759367
:10B5100000E0FEA3E064504E703890002B74E0C34E
:10B5200013FEA3E013FF90002B74EEF0A3EFF09056
:10B53000002B73E075F01EA424D0F582E5F03414DE
:10B54000F583759300EEF0A3EFF0E4900008C7F0E8
:10B55000806FED90002B74B40139E0FEA3E0FF9002
:10B56000002B73E0FD75F01EA424D0F582E5F034C5
:10B5700014F583759300EEF0A3EFF075F01EEDA4C3
:10B5800024D2F582E5F03414F583759300E4F0A33A
:10B59000F08020E0FEA3E0FF90002B73E075F01E2A
:10B5A000A424D2F582E5F03414F583759300EEF00F
:10B5B000A3EFF090002B76E004F0900008C7740130
:10B5C000F090002B73E075F01EA424D4F582E5F012
:10B5D0003414F583C083C082759300E0FEA3E0FFBE
:10B5E00090002B74E0FCA3E0FDC3EF9DFFEE9C7583
:10B5F0009300D082D083F0A3EFF090002B78E0FB93
:10B60000A3E0FAA3E02DF9EA3CFA90002B73E0FFE7
:10B6100075F01EA424DCF582E5F03414F5837593EF
:10B6200000EBF0A3EAF0A3E9F075F01EEFA424DC30
:10B63000F582E5F03414F583759300E0FBA3E0FA9E
:10B64000A3E0F9C003C002C00190002B78A3E0FA88
:10B65000A3E0F9D3D082D083D0E0E99582EA958344
:10B660004015EF75F01EA424DCF9741435F0FA7B54
:10B670000174011200758C90002B78E0F9A3E0FAB8
:10B68000A3E090000091C9F0A3EAF0A3E9F09000D4
:10B690002B74E0FEA3E0FF7881A60608A6079000C1
:10B6A0002B77E0B40108900008C7E04404F0900054
:10B6B0002B76E06401600301B78A787176017F041C
:10B6C00012009156900013D7E0600B90001420E018
:10B6D00070041201230E90001804E0FBA3E0FAA30B
:10B6E000E0F5828A838B93E4FFFE120078CF90000E
:10B6F00002DAE0240CFF900002D9E03400FAA90736
:10B700007B0190002B74E0FCA3E0FD12017D3290E0
:10B7100000009FE0FF900002D9E0FCA3E0FD8C83D5
:10B72000759300240CF582E43583F583759300EF5F
:10B73000F0900000A0E0FF8D828C83759300E5827D
:10B74000240DF582E43583F583759300EFF09000C6
:10B7500000A1E0FF8D828C83759300E582240EF5B5
:10B7600082E43583F583759300EFF0900000A2E04A
:10B77000FF8D828C83759300E582240FF582E4357A
:10B7800083F583759300EFF0803B90001807E0701D
:10B7900034787176017F0412009156900013D7E03F
:10B7A000600B90001420E070041201230E9000182A
:10B7B00004E0FBA3E0FAA3E0F5828A838B93E4FF25
:10B7C000FE120078CF90002B73E075F01EA424D4F5
:10B7D000F582E5F03414F583759300E0FFA3E09063
:10B7E000002B74CFF0A3EFF001B1B322900023211E
:10B7F0001200F0561200EEC81200EE7E64036003E1
:10B8000001BFAA1200F03590002321E0FCA3E0AABA
:10B8100004F97B0178287C237D01120074D9900003
:10B8200023251200F091F583C083C0827593001226
:10B8300000EEADFB1200F035E4FCFDEB2FFFEA3E1D
:10B84000FEED39FDEC38FC759300D082D0831200F8
:10B85000786CE490002326F0A3F0900023A8F01267
:10B8600000F03590002326E0FCA3E0FDC39FEC9E92
:10B87000400301BFAAAF0574282FF582E4342312D8
:10B8800000EE7E248D700301BB7A24E2606C14709C
:10B890000301B96C24F2700301B9A914700301BA51
:10B8A0002724F1700301BAA124E0700301BB232413
:10B8B00040600301BF8590002326E0FCA3E0120056
:10B8C000F0F33C1200EE7E1200EF651200EE9312D0
:10B8D00000BFC1B50721C39000115DE094FF900047
:10B8E000115CE094FF400301BB69A3E004F0700722
:10B8F0009000115CE004F001BB691200EF6E242A95
:10B90000F58274233E1200EE7E1200EF651200EE07
:10B91000931200BFFE6F600301BA901200EF2F7BFD
:10B92000017A1379A61200EFF860041200F03F903C
:10B930000023A8E020E00301BA901200EE8B78A665
:10B940007C137D011200F00290000FDCE094FF9068
:10B95000000FDBE094FF500DA3E004F070079000AF
:10B960000FDBE004F01200F09E01BA901200EF6EBF
:10B970001200F0F33E1200EE7E1200EF651200EEB0
:10B98000931200BFC1B5071EC3900013C0E094FF1F
:10B99000900013BFE094FF500DA3E004F0700790F7
:10B9A0000013BFE004F001BB691200EF6E2441F503
:10B9B0008274233E1200EE7E1200EF651200EE93B9
:10B9C0007D191200C0296F704F1200EF2F7B017A92
:10B9D0001379847F1A1200EFFA60041200F03F908E
:10B9E0000023A8E030E0311200EE8B78847C137DD8
:10B9F000017F1A1200F00490000F8CE094FF900079
:10BA00000F8BE094FF500DA3E004F0700790000F3F
:10BA10008BE004F01200F09E7F1A1200EE871200F5
:10BA2000EFC5241A01BF511200EF6E242AF582746B
:10BA3000233E1200EE7E1200EF651200EE9312001C
:10BA4000BFFE6F704B1200EF2F7B017A0F79AF12A0
:10BA500000EFF860041200F03F900023A8E030E00F
:10BA60002F1200EE8B78AF7C0F7D011200F0029058
:10BA700000139FE094FF9000139EE094FF500DA3ED
:10BA8000E004F070079000139EE004F01200F09EB6
:10BA90007E007F031200EE891200EFC5240301BF70
:10BAA000511200EF6E242DF58274233E1200EE7EBB
:10BAB0001200EF651200EE937D051200C0296F7031
:10BAC000551200EF2F7B017A1179787E007F0612E4
:10BAD000007A6EEF60041200F03F900023A8E0307F
